{
  "contractName": "Chama",
  "abi": [
    {
      "constant": true,
      "inputs": [
        {
          "name": "",
          "type": "uint256"
        }
      ],
      "name": "chamas",
      "outputs": [
        {
          "name": "chamaID",
          "type": "uint256"
        },
        {
          "name": "_name",
          "type": "string"
        },
        {
          "name": "chamaManager",
          "type": "address"
        },
        {
          "name": "registrationFee",
          "type": "uint256"
        },
        {
          "name": "premium",
          "type": "uint256"
        },
        {
          "name": "target",
          "type": "uint256"
        },
        {
          "name": "creationDate",
          "type": "uint256"
        },
        {
          "name": "disbursementPeriod",
          "type": "uint256"
        },
        {
          "name": "endDate",
          "type": "uint256"
        }
      ],
      "payable": false,
      "stateMutability": "view",
      "type": "function"
    },
    {
      "constant": true,
      "inputs": [],
      "name": "membersToApproveCount",
      "outputs": [
        {
          "name": "",
          "type": "uint256"
        }
      ],
      "payable": false,
      "stateMutability": "view",
      "type": "function"
    },
    {
      "constant": true,
      "inputs": [],
      "name": "membersCount",
      "outputs": [
        {
          "name": "",
          "type": "uint256"
        }
      ],
      "payable": false,
      "stateMutability": "view",
      "type": "function"
    },
    {
      "constant": true,
      "inputs": [],
      "name": "chamaManager3",
      "outputs": [
        {
          "name": "",
          "type": "address"
        }
      ],
      "payable": false,
      "stateMutability": "view",
      "type": "function"
    },
    {
      "constant": true,
      "inputs": [
        {
          "name": "",
          "type": "uint256"
        }
      ],
      "name": "membersToChama",
      "outputs": [
        {
          "name": "",
          "type": "address"
        }
      ],
      "payable": false,
      "stateMutability": "view",
      "type": "function"
    },
    {
      "constant": true,
      "inputs": [],
      "name": "requestCount",
      "outputs": [
        {
          "name": "",
          "type": "uint256"
        }
      ],
      "payable": false,
      "stateMutability": "view",
      "type": "function"
    },
    {
      "constant": true,
      "inputs": [
        {
          "name": "",
          "type": "uint256"
        }
      ],
      "name": "approversToChama3",
      "outputs": [
        {
          "name": "",
          "type": "address"
        }
      ],
      "payable": false,
      "stateMutability": "view",
      "type": "function"
    },
    {
      "constant": true,
      "inputs": [
        {
          "name": "",
          "type": "uint256"
        }
      ],
      "name": "members",
      "outputs": [
        {
          "name": "memberID",
          "type": "uint256"
        },
        {
          "name": "member",
          "type": "address"
        },
        {
          "name": "chamaID",
          "type": "uint256"
        },
        {
          "name": "registrationDate",
          "type": "uint256"
        },
        {
          "name": "isActive",
          "type": "bool"
        },
        {
          "name": "hasLoaned",
          "type": "bool"
        },
        {
          "name": "hasEmergency",
          "type": "bool"
        },
        {
          "name": "hasBeenPaid",
          "type": "bool"
        }
      ],
      "payable": false,
      "stateMutability": "view",
      "type": "function"
    },
    {
      "constant": true,
      "inputs": [],
      "name": "chamaManager2",
      "outputs": [
        {
          "name": "",
          "type": "address"
        }
      ],
      "payable": false,
      "stateMutability": "view",
      "type": "function"
    },
    {
      "constant": true,
      "inputs": [
        {
          "name": "",
          "type": "uint256"
        }
      ],
      "name": "requests",
      "outputs": [
        {
          "name": "requestID",
          "type": "uint256"
        },
        {
          "name": "description",
          "type": "string"
        },
        {
          "name": "amount",
          "type": "uint256"
        },
        {
          "name": "recipient",
          "type": "address"
        },
        {
          "name": "chamaID",
          "type": "uint256"
        },
        {
          "name": "memberNo",
          "type": "uint256"
        },
        {
          "name": "complete",
          "type": "bool"
        },
        {
          "name": "approvalCount",
          "type": "uint256"
        }
      ],
      "payable": false,
      "stateMutability": "view",
      "type": "function"
    },
    {
      "constant": true,
      "inputs": [],
      "name": "approversCount",
      "outputs": [
        {
          "name": "",
          "type": "uint256"
        }
      ],
      "payable": false,
      "stateMutability": "view",
      "type": "function"
    },
    {
      "constant": true,
      "inputs": [
        {
          "name": "",
          "type": "uint256"
        }
      ],
      "name": "approversToChama2",
      "outputs": [
        {
          "name": "",
          "type": "address"
        }
      ],
      "payable": false,
      "stateMutability": "view",
      "type": "function"
    },
    {
      "constant": true,
      "inputs": [],
      "name": "chamaManager4",
      "outputs": [
        {
          "name": "",
          "type": "address"
        }
      ],
      "payable": false,
      "stateMutability": "view",
      "type": "function"
    },
    {
      "constant": true,
      "inputs": [
        {
          "name": "",
          "type": "uint256"
        }
      ],
      "name": "approversToChama4",
      "outputs": [
        {
          "name": "",
          "type": "address"
        }
      ],
      "payable": false,
      "stateMutability": "view",
      "type": "function"
    },
    {
      "constant": true,
      "inputs": [],
      "name": "memberFundCount",
      "outputs": [
        {
          "name": "",
          "type": "uint256"
        }
      ],
      "payable": false,
      "stateMutability": "view",
      "type": "function"
    },
    {
      "constant": true,
      "inputs": [],
      "name": "loanRequestCount",
      "outputs": [
        {
          "name": "",
          "type": "uint256"
        }
      ],
      "payable": false,
      "stateMutability": "view",
      "type": "function"
    },
    {
      "constant": true,
      "inputs": [],
      "name": "chamaCount",
      "outputs": [
        {
          "name": "",
          "type": "uint256"
        }
      ],
      "payable": false,
      "stateMutability": "view",
      "type": "function"
    },
    {
      "constant": true,
      "inputs": [],
      "name": "loanCount",
      "outputs": [
        {
          "name": "",
          "type": "uint256"
        }
      ],
      "payable": false,
      "stateMutability": "view",
      "type": "function"
    },
    {
      "constant": true,
      "inputs": [
        {
          "name": "",
          "type": "uint256"
        }
      ],
      "name": "loans",
      "outputs": [
        {
          "name": "loanID",
          "type": "uint256"
        },
        {
          "name": "memberID",
          "type": "uint256"
        },
        {
          "name": "chamaID",
          "type": "uint256"
        },
        {
          "name": "loaneeAddress",
          "type": "address"
        },
        {
          "name": "amount",
          "type": "uint256"
        },
        {
          "name": "dayAwarded",
          "type": "uint256"
        },
        {
          "name": "dueDate",
          "type": "uint256"
        },
        {
          "name": "hasBeenPaid",
          "type": "bool"
        }
      ],
      "payable": false,
      "stateMutability": "view",
      "type": "function"
    },
    {
      "constant": true,
      "inputs": [],
      "name": "chamaManager1",
      "outputs": [
        {
          "name": "",
          "type": "address"
        }
      ],
      "payable": false,
      "stateMutability": "view",
      "type": "function"
    },
    {
      "constant": true,
      "inputs": [
        {
          "name": "",
          "type": "uint256"
        }
      ],
      "name": "approversToChama1",
      "outputs": [
        {
          "name": "",
          "type": "address"
        }
      ],
      "payable": false,
      "stateMutability": "view",
      "type": "function"
    },
    {
      "anonymous": false,
      "inputs": [
        {
          "indexed": false,
          "name": "approvCount",
          "type": "uint256"
        },
        {
          "indexed": false,
          "name": "descr",
          "type": "string"
        },
        {
          "indexed": false,
          "name": "amt",
          "type": "uint256"
        },
        {
          "indexed": false,
          "name": "loanee",
          "type": "address"
        },
        {
          "indexed": false,
          "name": "membID",
          "type": "uint256"
        },
        {
          "indexed": false,
          "name": "status",
          "type": "bool"
        }
      ],
      "name": "NewLoanRequest",
      "type": "event"
    },
    {
      "anonymous": false,
      "inputs": [
        {
          "indexed": false,
          "name": "chamaCount",
          "type": "uint256"
        },
        {
          "indexed": false,
          "name": "name",
          "type": "string"
        },
        {
          "indexed": false,
          "name": "chamAddress",
          "type": "address"
        },
        {
          "indexed": false,
          "name": "regFee",
          "type": "uint256"
        },
        {
          "indexed": false,
          "name": "premium",
          "type": "uint256"
        },
        {
          "indexed": false,
          "name": "target",
          "type": "uint256"
        },
        {
          "indexed": false,
          "name": "date",
          "type": "uint256"
        },
        {
          "indexed": false,
          "name": "_reemittancePeriod",
          "type": "uint256"
        },
        {
          "indexed": false,
          "name": "chamMembers",
          "type": "address[]"
        },
        {
          "indexed": false,
          "name": "chamsEndDate",
          "type": "uint256"
        }
      ],
      "name": "NewChama",
      "type": "event"
    },
    {
      "constant": false,
      "inputs": [
        {
          "name": "_name",
          "type": "string"
        },
        {
          "name": "registrationFee",
          "type": "uint256"
        },
        {
          "name": "premium",
          "type": "uint256"
        },
        {
          "name": "target",
          "type": "uint256"
        },
        {
          "name": "_reemittancePeriod",
          "type": "uint256"
        }
      ],
      "name": "createRandomChama",
      "outputs": [
        {
          "name": "",
          "type": "uint256"
        },
        {
          "name": "",
          "type": "address"
        }
      ],
      "payable": true,
      "stateMutability": "payable",
      "type": "function"
    },
    {
      "constant": false,
      "inputs": [
        {
          "name": "chamaAddre",
          "type": "address"
        },
        {
          "name": "chamaCt",
          "type": "uint256"
        }
      ],
      "name": "joinChama",
      "outputs": [
        {
          "name": "",
          "type": "uint256"
        }
      ],
      "payable": true,
      "stateMutability": "payable",
      "type": "function"
    },
    {
      "constant": false,
      "inputs": [
        {
          "name": "_chamID",
          "type": "uint256"
        },
        {
          "name": "_membReceiving",
          "type": "address"
        }
      ],
      "name": "disburseDividends",
      "outputs": [],
      "payable": false,
      "stateMutability": "nonpayable",
      "type": "function"
    },
    {
      "constant": true,
      "inputs": [
        {
          "name": "_membersCount",
          "type": "uint256"
        }
      ],
      "name": "checkSubscriptionStatus",
      "outputs": [
        {
          "name": "",
          "type": "bool"
        }
      ],
      "payable": false,
      "stateMutability": "view",
      "type": "function"
    },
    {
      "constant": false,
      "inputs": [
        {
          "name": "_membersCount",
          "type": "uint256"
        }
      ],
      "name": "renewSubscription",
      "outputs": [],
      "payable": true,
      "stateMutability": "payable",
      "type": "function"
    },
    {
      "constant": false,
      "inputs": [
        {
          "name": "_description",
          "type": "string"
        },
        {
          "name": "_amount",
          "type": "uint256"
        },
        {
          "name": "_memberNo",
          "type": "uint256"
        },
        {
          "name": "_chmID",
          "type": "uint256"
        }
      ],
      "name": "createLoanRequest",
      "outputs": [],
      "payable": false,
      "stateMutability": "nonpayable",
      "type": "function"
    },
    {
      "constant": false,
      "inputs": [
        {
          "name": "_requestID",
          "type": "uint256"
        },
        {
          "name": "_approverID",
          "type": "uint256"
        },
        {
          "name": "_chamsId",
          "type": "uint256"
        }
      ],
      "name": "approveLoanRequest",
      "outputs": [],
      "payable": false,
      "stateMutability": "nonpayable",
      "type": "function"
    },
    {
      "constant": false,
      "inputs": [
        {
          "name": "_requestID",
          "type": "uint256"
        }
      ],
      "name": "awardLoanRequest",
      "outputs": [],
      "payable": false,
      "stateMutability": "nonpayable",
      "type": "function"
    },
    {
      "constant": false,
      "inputs": [
        {
          "name": "_loanId",
          "type": "uint256"
        }
      ],
      "name": "payLoanAwarded",
      "outputs": [
        {
          "name": "",
          "type": "bool"
        }
      ],
      "payable": true,
      "stateMutability": "payable",
      "type": "function"
    },
    {
      "constant": false,
      "inputs": [],
      "name": "endChama",
      "outputs": [],
      "payable": false,
      "stateMutability": "nonpayable",
      "type": "function"
    }
  ],
  "bytecode": "0x60806040526001600b5534801561001557600080fd5b50613701806100256000396000f30060806040526004361061018b576000357c0100000000000000000000000000000000000000000000000000000000900463ffffffff16806307a6afb1146101905780630b5d7085146101dd5780630f6745bc146102e757806319e75ec7146103125780631fd68fb2146103dd57806325d1afae14610464578063297f9af0146104b85780633b16b5d5146104e357806340e75ea01461053a57806342a3844a1461057f578063466d6793146105ec5780635badbe4c146106245780635c1d90391461064f5780635daf08ca146106bc57806376a4598c1461076a57806381d12c58146107c157806382fde093146108c85780638eba8689146108f35780638fe433071461096057806394b22516146109b75780639fccd5e8146109f8578063a4357ba614610a0f578063aa2630c914610a7c578063afcefe9714610aa9578063b786f97814610ad4578063c087e28b14610aff578063ce63094d14610b2a578063d71bb37b14610b55578063e1ec3c6814610b75578063ee69f40714610c17578063f8c6ee1914610c6e575b600080fd5b34801561019c57600080fd5b506101db60048036038101908080359060200190929190803573ffffffffffffffffffffffffffffffffffffffff169060200190929190505050610cdb565b005b3480156101e957600080fd5b5061020860048036038101908080359060200190929190505050610f3f565b604051808a8152602001806020018973ffffffffffffffffffffffffffffffffffffffff1673ffffffffffffffffffffffffffffffffffffffff16815260200188815260200187815260200186815260200185815260200184815260200183815260200182810382528a818151815260200191508051906020019080838360005b838110156102a4578082015181840152602081019050610289565b50505050905090810190601f1680156102d15780820380516001836020036101000a031916815260200191505b509a505050505050505050505060405180910390f35b3480156102f357600080fd5b506102fc611054565b6040518082815260200191505060405180910390f35b610394600480360381019080803590602001908201803590602001908080601f01602080910402602001604051908101604052809392919081815260200183838082843782019150505050505091929192908035906020019092919080359060200190929190803590602001909291908035906020019092919050505061105a565b604051808381526020018273ffffffffffffffffffffffffffffffffffffffff1673ffffffffffffffffffffffffffffffffffffffff1681526020019250505060405180910390f35b3480156103e957600080fd5b50610462600480360381019080803590602001908201803590602001908080601f0160208091040260200160405190810160405280939291908181526020018383808284378201915050505050509192919290803590602001909291908035906020019092919080359060200190929190505050611a3c565b005b6104a2600480360381019080803573ffffffffffffffffffffffffffffffffffffffff16906020019092919080359060200190929190505050612094565b6040518082815260200191505060405180910390f35b3480156104c457600080fd5b506104cd61252e565b6040518082815260200191505060405180910390f35b3480156104ef57600080fd5b506104f8612534565b604051808273ffffffffffffffffffffffffffffffffffffffff1673ffffffffffffffffffffffffffffffffffffffff16815260200191505060405180910390f35b34801561054657600080fd5b506105656004803603810190808035906020019092919050505061255a565b604051808215151515815260200191505060405180910390f35b34801561058b57600080fd5b506105aa600480360381019080803590602001909291905050506125a4565b604051808273ffffffffffffffffffffffffffffffffffffffff1673ffffffffffffffffffffffffffffffffffffffff16815260200191505060405180910390f35b61060a600480360381019080803590602001909291905050506125d7565b604051808215151515815260200191505060405180910390f35b34801561063057600080fd5b50610639612844565b6040518082815260200191505060405180910390f35b34801561065b57600080fd5b5061067a6004803603810190808035906020019092919050505061284a565b604051808273ffffffffffffffffffffffffffffffffffffffff1673ffffffffffffffffffffffffffffffffffffffff16815260200191505060405180910390f35b3480156106c857600080fd5b506106e76004803603810190808035906020019092919050505061287d565b604051808981526020018873ffffffffffffffffffffffffffffffffffffffff1673ffffffffffffffffffffffffffffffffffffffff168152602001878152602001868152602001851515151581526020018415151515815260200183151515158152602001821515151581526020019850505050505050505060405180910390f35b34801561077657600080fd5b5061077f612928565b604051808273ffffffffffffffffffffffffffffffffffffffff1673ffffffffffffffffffffffffffffffffffffffff16815260200191505060405180910390f35b3480156107cd57600080fd5b506107ec6004803603810190808035906020019092919050505061294e565b60405180898152602001806020018881526020018773ffffffffffffffffffffffffffffffffffffffff1673ffffffffffffffffffffffffffffffffffffffff16815260200186815260200185815260200184151515158152602001838152602001828103825289818151815260200191508051906020019080838360005b8381101561088657808201518184015260208101905061086b565b50505050905090810190601f1680156108b35780820380516001836020036101000a031916815260200191505b50995050505050505050505060405180910390f35b3480156108d457600080fd5b506108dd612a6a565b6040518082815260200191505060405180910390f35b3480156108ff57600080fd5b5061091e60048036038101908080359060200190929190505050612a70565b604051808273ffffffffffffffffffffffffffffffffffffffff1673ffffffffffffffffffffffffffffffffffffffff16815260200191505060405180910390f35b34801561096c57600080fd5b50610975612aa3565b604051808273ffffffffffffffffffffffffffffffffffffffff1673ffffffffffffffffffffffffffffffffffffffff16815260200191505060405180910390f35b3480156109c357600080fd5b506109f6600480360381019080803590602001909291908035906020019092919080359060200190929190505050612ac9565b005b348015610a0457600080fd5b50610a0d612d9a565b005b348015610a1b57600080fd5b50610a3a60048036038101908080359060200190929190505050612e8a565b604051808273ffffffffffffffffffffffffffffffffffffffff1673ffffffffffffffffffffffffffffffffffffffff16815260200191505060405180910390f35b348015610a8857600080fd5b50610aa760048036038101908080359060200190929190505050612ebd565b005b348015610ab557600080fd5b50610abe613336565b6040518082815260200191505060405180910390f35b348015610ae057600080fd5b50610ae961333c565b6040518082815260200191505060405180910390f35b348015610b0b57600080fd5b50610b14613342565b6040518082815260200191505060405180910390f35b348015610b3657600080fd5b50610b3f613348565b6040518082815260200191505060405180910390f35b610b736004803603810190808035906020019092919050505061334e565b005b348015610b8157600080fd5b50610ba06004803603810190808035906020019092919050505061341e565b604051808981526020018881526020018781526020018673ffffffffffffffffffffffffffffffffffffffff1673ffffffffffffffffffffffffffffffffffffffff168152602001858152602001848152602001838152602001821515151581526020019850505050505050505060405180910390f35b348015610c2357600080fd5b50610c2c6134a2565b604051808273ffffffffffffffffffffffffffffffffffffffff1673ffffffffffffffffffffffffffffffffffffffff16815260200191505060405180910390f35b348015610c7a57600080fd5b50610c99600480360381019080803590602001909291905050506134c7565b604051808273ffffffffffffffffffffffffffffffffffffffff1673ffffffffffffffffffffffffffffffffffffffff16815260200191505060405180910390f35b620639c0601783815481101515610cee57fe5b90600052602060002090600a020160060154014210151515610d0f57600080fd5b60001515600f60008373ffffffffffffffffffffffffffffffffffffffff1673ffffffffffffffffffffffffffffffffffffffff16815260200190815260200160002060009054906101000a900460ff161515141515610d6e57600080fd5b6009600081548092919060010191905055506010600954815481101515610d9157fe5b906000526020600020906005020160010160009054906101000a900473ffffffffffffffffffffffffffffffffffffffff1673ffffffffffffffffffffffffffffffffffffffff166108fc60646032601786815481101515610def57fe5b90600052602060002090600a020160020160009054906101000a900473ffffffffffffffffffffffffffffffffffffffff1673ffffffffffffffffffffffffffffffffffffffff163102811515610e4257fe5b049081150290604051600060405180830381858888f19350505050158015610e6e573d6000803e3d6000fd5b5042601783815481101515610e7f57fe5b90600052602060002090600a02016006018190555060016010600954815481101515610ea757fe5b906000526020600020906005020160040160036101000a81548160ff0219169083151502179055506001600f60008373ffffffffffffffffffffffffffffffffffffffff1673ffffffffffffffffffffffffffffffffffffffff16815260200190815260200160002060006101000a81548160ff021916908315150217905550600c6009541115610f3b5760006009819055505b5050565b601781815481101515610f4e57fe5b90600052602060002090600a0201600091509050806000015490806001018054600181600116156101000203166002900480601f0160208091040260200160405190810160405280929190818152602001828054600181600116156101000203166002900480156110005780601f10610fd557610100808354040283529160200191611000565b820191906000526020600020905b815481529060010190602001808311610fe357829003601f168201915b5050505050908060020160009054906101000a900473ffffffffffffffffffffffffffffffffffffffff16908060030154908060040154908060050154908060060154908060070154908060090154905089565b600b5481565b600080600080606060006729a2241af62c0000341015151561107b57600080fd5b600073ffffffffffffffffffffffffffffffffffffffff166000809054906101000a900473ffffffffffffffffffffffffffffffffffffffff1673ffffffffffffffffffffffffffffffffffffffff1614806111255750600073ffffffffffffffffffffffffffffffffffffffff16600160009054906101000a900473ffffffffffffffffffffffffffffffffffffffff1673ffffffffffffffffffffffffffffffffffffffff16145b8061117e5750600073ffffffffffffffffffffffffffffffffffffffff16600260009054906101000a900473ffffffffffffffffffffffffffffffffffffffff1673ffffffffffffffffffffffffffffffffffffffff16145b806111d75750600073ffffffffffffffffffffffffffffffffffffffff16600360009054906101000a900473ffffffffffffffffffffffffffffffffffffffff1673ffffffffffffffffffffffffffffffffffffffff16145b15156111e257600080fd5b600073ffffffffffffffffffffffffffffffffffffffff166000809054906101000a900473ffffffffffffffffffffffffffffffffffffffff1673ffffffffffffffffffffffffffffffffffffffff16148061128c5750600073ffffffffffffffffffffffffffffffffffffffff16600160009054906101000a900473ffffffffffffffffffffffffffffffffffffffff1673ffffffffffffffffffffffffffffffffffffffff16145b806112e55750600073ffffffffffffffffffffffffffffffffffffffff16600260009054906101000a900473ffffffffffffffffffffffffffffffffffffffff1673ffffffffffffffffffffffffffffffffffffffff16145b8061133e5750600073ffffffffffffffffffffffffffffffffffffffff16600360009054906101000a900473ffffffffffffffffffffffffffffffffffffffff1673ffffffffffffffffffffffffffffffffffffffff16145b156113ac57336000806101000a81548173ffffffffffffffffffffffffffffffffffffffff021916908373ffffffffffffffffffffffffffffffffffffffff1602179055506000809054906101000a900473ffffffffffffffffffffffffffffffffffffffff16935061176e565b600073ffffffffffffffffffffffffffffffffffffffff16600160009054906101000a900473ffffffffffffffffffffffffffffffffffffffff1673ffffffffffffffffffffffffffffffffffffffff1614806114575750600073ffffffffffffffffffffffffffffffffffffffff16600260009054906101000a900473ffffffffffffffffffffffffffffffffffffffff1673ffffffffffffffffffffffffffffffffffffffff16145b806114b05750600073ffffffffffffffffffffffffffffffffffffffff16600360009054906101000a900473ffffffffffffffffffffffffffffffffffffffff1673ffffffffffffffffffffffffffffffffffffffff16145b156115205733600160006101000a81548173ffffffffffffffffffffffffffffffffffffffff021916908373ffffffffffffffffffffffffffffffffffffffff160217905550600160009054906101000a900473ffffffffffffffffffffffffffffffffffffffff16935061176d565b600073ffffffffffffffffffffffffffffffffffffffff16600260009054906101000a900473ffffffffffffffffffffffffffffffffffffffff1673ffffffffffffffffffffffffffffffffffffffff1614806115cb5750600073ffffffffffffffffffffffffffffffffffffffff16600360009054906101000a900473ffffffffffffffffffffffffffffffffffffffff1673ffffffffffffffffffffffffffffffffffffffff16145b1561163b5733600260006101000a81548173ffffffffffffffffffffffffffffffffffffffff021916908373ffffffffffffffffffffffffffffffffffffffff160217905550600260009054906101000a900473ffffffffffffffffffffffffffffffffffffffff16935061176c565b600073ffffffffffffffffffffffffffffffffffffffff16600360009054906101000a900473ffffffffffffffffffffffffffffffffffffffff1673ffffffffffffffffffffffffffffffffffffffff1614156116fd5733600360006101000a81548173ffffffffffffffffffffffffffffffffffffffff021916908373ffffffffffffffffffffffffffffffffffffffff160217905550600360009054906101000a900473ffffffffffffffffffffffffffffffffffffffff16935061176b565b6040517f08c379a00000000000000000000000000000000000000000000000000000000081526004018080602001828103825260188152602001807f53746f70206372656174696e6720746865206368616d6121000000000000000081525060200191505060405180910390fd5b5b5b5b600660008154809291906001019190505550429250624ab50090506101406040519081016040528060065481526020018c81526020018573ffffffffffffffffffffffffffffffffffffffff1681526020018b81526020018a81526020018981526020018481526020018881526020018381526020018281525060176006548154811015156117f957fe5b90600052602060002090600a020160008201518160000155602082015181600101908051906020019061182d9291906134fa565b5060408201518160020160006101000a81548173ffffffffffffffffffffffffffffffffffffffff021916908373ffffffffffffffffffffffffffffffffffffffff160217905550606082015181600301556080820151816004015560a0820151816005015560c0820151816006015560e082015181600701556101008201518160080190805190602001906118c492919061357a565b5061012082015181600901559050507fe8cbc7de3e7d78cd22d00dc7244b12c466a9c0062f2e068295a9e2f3132379d96006548c868d8d8d898e8a8a604051808b8152602001806020018a73ffffffffffffffffffffffffffffffffffffffff1673ffffffffffffffffffffffffffffffffffffffff1681526020018981526020018881526020018781526020018681526020018581526020018060200184815260200183810383528c818151815260200191508051906020019080838360005b838110156119a0578082015181840152602081019050611985565b50505050905090810190601f1680156119cd5780820380516001836020036101000a031916815260200191505b50838103825285818151815260200191508051906020019060200280838360005b83811015611a095780820151818401526020810190506119ee565b505050509050019c5050505050505050505050505060405180910390a16006548495509550505050509550959350505050565b60008060008033935060009150600a60008154809291906001019190505550601161010060405190810160405280600a5481526020018a81526020018981526020018673ffffffffffffffffffffffffffffffffffffffff16815260200187815260200188815260200184151581526020018581525090806001815401808255809150509060018203906000526020600020906008020160009091929091909150600082015181600001556020820151816001019080519060200190611b039291906134fa565b506040820151816002015560608201518160030160006101000a81548173ffffffffffffffffffffffffffffffffffffffff021916908373ffffffffffffffffffffffffffffffffffffffff1602179055506080820151816004015560a0820151816005015560c08201518160060160006101000a81548160ff02191690831515021790555060e08201518160070155505050600090505b601785815481101515611baa57fe5b90600052602060002090600a020160080180549050811015611f96576001851415611c9157601785815481101515611bde57fe5b90600052602060002090600a020160080181815481101515611bfc57fe5b9060005260206000200160009054906101000a900473ffffffffffffffffffffffffffffffffffffffff1660136000600b54815260200190815260200160002060006101000a81548173ffffffffffffffffffffffffffffffffffffffff021916908373ffffffffffffffffffffffffffffffffffffffff160217905550600b60008154809291906001019190505550611f89565b6002851415611d5c57601785815481101515611ca957fe5b90600052602060002090600a020160080181815481101515611cc757fe5b9060005260206000200160009054906101000a900473ffffffffffffffffffffffffffffffffffffffff1660146000600b54815260200190815260200160002060006101000a81548173ffffffffffffffffffffffffffffffffffffffff021916908373ffffffffffffffffffffffffffffffffffffffff160217905550600b60008154809291906001019190505550611f88565b6003851415611e2757601785815481101515611d7457fe5b90600052602060002090600a020160080181815481101515611d9257fe5b9060005260206000200160009054906101000a900473ffffffffffffffffffffffffffffffffffffffff1660156000600b54815260200190815260200160002060006101000a81548173ffffffffffffffffffffffffffffffffffffffff021916908373ffffffffffffffffffffffffffffffffffffffff160217905550600b60008154809291906001019190505550611f87565b6004851415611ef257601785815481101515611e3f57fe5b90600052602060002090600a020160080181815481101515611e5d57fe5b9060005260206000200160009054906101000a900473ffffffffffffffffffffffffffffffffffffffff1660166000600b54815260200190815260200160002060006101000a81548173ffffffffffffffffffffffffffffffffffffffff021916908373ffffffffffffffffffffffffffffffffffffffff160217905550600b60008154809291906001019190505550611f86565b6040517f08c379a00000000000000000000000000000000000000000000000000000000081526004018080602001828103825260228152602001807f4368616d612077697468207468617420494420646f6573206e6f74206578697381526020017f742100000000000000000000000000000000000000000000000000000000000081525060400191505060405180910390fd5b5b5b5b8080600101915050611b9b565b7f4914c87a5b1143f407f6924cc93cfc92abac683355da6918a3a92d5cc97317b2838989878a8760405180878152602001806020018681526020018573ffffffffffffffffffffffffffffffffffffffff1673ffffffffffffffffffffffffffffffffffffffff16815260200184815260200183151515158152602001828103825287818151815260200191508051906020019080838360005b8381101561204b578082015181840152602081019050612030565b50505050905090810190601f1680156120785780820380516001836020036101000a031916815260200191505b5097505050505050505060405180910390a15050505050505050565b60008060008060009054906101000a900473ffffffffffffffffffffffffffffffffffffffff1673ffffffffffffffffffffffffffffffffffffffff168573ffffffffffffffffffffffffffffffffffffffff1614806121415750600160009054906101000a900473ffffffffffffffffffffffffffffffffffffffff1673ffffffffffffffffffffffffffffffffffffffff168573ffffffffffffffffffffffffffffffffffffffff16145b806121995750600260009054906101000a900473ffffffffffffffffffffffffffffffffffffffff1673ffffffffffffffffffffffffffffffffffffffff168573ffffffffffffffffffffffffffffffffffffffff16145b806121f15750600360009054906101000a900473ffffffffffffffffffffffffffffffffffffffff1673ffffffffffffffffffffffffffffffffffffffff168573ffffffffffffffffffffffffffffffffffffffff16145b15156121fc57600080fd5b600c600d60008773ffffffffffffffffffffffffffffffffffffffff1673ffffffffffffffffffffffffffffffffffffffff168152602001908152602001600020541115151561224b57600080fd5b60178481548110151561225a57fe5b90600052602060002090600a020160030154341015151561227a57600080fd5b429150600460008154809291906001019190505550600160106101006040519081016040528060045481526020013373ffffffffffffffffffffffffffffffffffffffff16815260200187815260200185815260200160011515815260200160001515815260200160001515815260200160001515815250908060018154018082558091505090600182039060005260206000209060050201600090919290919091506000820151816000015560208201518160010160006101000a81548173ffffffffffffffffffffffffffffffffffffffff021916908373ffffffffffffffffffffffffffffffffffffffff160217905550604082015181600201556060820151816003015560808201518160040160006101000a81548160ff02191690831515021790555060a08201518160040160016101000a81548160ff02191690831515021790555060c08201518160040160026101000a81548160ff02191690831515021790555060e08201518160040160036101000a81548160ff021916908315150217905550505003905084600c600083815260200190815260200160002060006101000a81548173ffffffffffffffffffffffffffffffffffffffff021916908373ffffffffffffffffffffffffffffffffffffffff160217905550600454600d60008773ffffffffffffffffffffffffffffffffffffffff1673ffffffffffffffffffffffffffffffffffffffff168152602001908152602001600020819055506017848154811015156124ae57fe5b90600052602060002090600a02016008013390806001815401808255809150509060018203906000526020600020016000909192909190916101000a81548173ffffffffffffffffffffffffffffffffffffffff021916908373ffffffffffffffffffffffffffffffffffffffff16021790555050809250505092915050565b60045481565b600260009054906101000a900473ffffffffffffffffffffffffffffffffffffffff1681565b600080620639c060108481548110151561257057fe5b90600052602060002090600502016003015401421415612596576001905080915061259e565b600090508091505b50919050565b600c6020528060005260406000206000915054906101000a900473ffffffffffffffffffffffffffffffffffffffff1681565b6000806000806000806012878154811015156125ef57fe5b906000526020600020906008020160070160009054906101000a900460ff1615151561261a57600080fd5b60128781548110151561262957fe5b906000526020600020906008020160060154945042935060128781548110151561264f57fe5b906000526020600020906008020160040154925060128781548110151561267257fe5b906000526020600020906008020160010154905084841115156126dd5782341015151561269e57600080fd5b60016012888154811015156126af57fe5b906000526020600020906008020160070160006101000a81548160ff0219169083151502179055955061283a565b8484111561283957620639c08501841015156127535760646066840281151561270257fe5b04915081341015151561271457600080fd5b600160128881548110151561272557fe5b906000526020600020906008020160070160006101000a81548160ff0219169083151502179055955061283a565b620c73808501841015156127c15760646068840281151561277057fe5b04915081341015151561278257600080fd5b600160128881548110151561279357fe5b906000526020600020906008020160070160006101000a81548160ff0219169083151502179055955061283a565b60006010828154811015156127d257fe5b906000526020600020906005020160040160006101000a81548160ff021916908315150217905550600060128881548110151561280b57fe5b906000526020600020906008020160070160006101000a81548160ff0219169083151502179055955061283a565b5b5050505050919050565b60075481565b60156020528060005260406000206000915054906101000a900473ffffffffffffffffffffffffffffffffffffffff1681565b60108181548110151561288c57fe5b90600052602060002090600502016000915090508060000154908060010160009054906101000a900473ffffffffffffffffffffffffffffffffffffffff16908060020154908060030154908060040160009054906101000a900460ff16908060040160019054906101000a900460ff16908060040160029054906101000a900460ff16908060040160039054906101000a900460ff16905088565b600160009054906101000a900473ffffffffffffffffffffffffffffffffffffffff1681565b60118181548110151561295d57fe5b9060005260206000209060080201600091509050806000015490806001018054600181600116156101000203166002900480601f016020809104026020016040519081016040528092919081815260200182805460018160011615610100020316600290048015612a0f5780601f106129e457610100808354040283529160200191612a0f565b820191906000526020600020905b8154815290600101906020018083116129f257829003601f168201915b5050505050908060020154908060030160009054906101000a900473ffffffffffffffffffffffffffffffffffffffff16908060040154908060050154908060060160009054906101000a900460ff16908060070154905088565b60085481565b60146020528060005260406000206000915054906101000a900473ffffffffffffffffffffffffffffffffffffffff1681565b600360009054906101000a900473ffffffffffffffffffffffffffffffffffffffff1681565b6001811415612b44573373ffffffffffffffffffffffffffffffffffffffff166013600084815260200190815260200160002060009054906101000a900473ffffffffffffffffffffffffffffffffffffffff1673ffffffffffffffffffffffffffffffffffffffff16141515612b3f57600080fd5b612cb4565b6002811415612bbf573373ffffffffffffffffffffffffffffffffffffffff166014600084815260200190815260200160002060009054906101000a900473ffffffffffffffffffffffffffffffffffffffff1673ffffffffffffffffffffffffffffffffffffffff16141515612bba57600080fd5b612cb3565b6003811415612c3a573373ffffffffffffffffffffffffffffffffffffffff166015600084815260200190815260200160002060009054906101000a900473ffffffffffffffffffffffffffffffffffffffff1673ffffffffffffffffffffffffffffffffffffffff16141515612c3557600080fd5b612cb2565b6004811415612cb1573373ffffffffffffffffffffffffffffffffffffffff166016600084815260200190815260200160002060009054906101000a900473ffffffffffffffffffffffffffffffffffffffff1673ffffffffffffffffffffffffffffffffffffffff16141515612cb057600080fd5b5b5b5b5b600e60003373ffffffffffffffffffffffffffffffffffffffff1673ffffffffffffffffffffffffffffffffffffffff16815260200190815260200160002060009054906101000a900460ff16151515612d0d57600080fd5b601183815481101515612d1c57fe5b9060005260206000209060080201600701600081548092919060010191905055506001600e60003373ffffffffffffffffffffffffffffffffffffffff1673ffffffffffffffffffffffffffffffffffffffff16815260200190815260200160002060006101000a81548160ff021916908315150217905550505050565b6000600190505b60065481111515612e875762015180601782815481101515612dbf57fe5b90600052602060002090600a0201600901540142101515612e7a57601781815481101515612de957fe5b90600052602060002090600a0201600080820160009055600182016000612e109190613604565b6002820160006101000a81549073ffffffffffffffffffffffffffffffffffffffff021916905560038201600090556004820160009055600582016000905560068201600090556007820160009055600882016000612e6f919061364c565b600982016000905550505b8080600101915050612da1565b50565b60166020528060005260406000206000915054906101000a900473ffffffffffffffffffffffffffffffffffffffff1681565b6000806000806000601186815481101515612ed457fe5b9060005260206000209060080201600501549450601085815481101515612ef757fe5b906000526020600020906005020160040160009054906101000a900460ff161515612f2157600080fd5b6006601187815481101515612f3257fe5b90600052602060002090600802016007015410151515612f5157600080fd5b601186815481101515612f6057fe5b906000526020600020906008020160060160009054906101000a900460ff16151515612f8b57600080fd5b601186815481101515612f9a57fe5b906000526020600020906008020160030160009054906101000a900473ffffffffffffffffffffffffffffffffffffffff1673ffffffffffffffffffffffffffffffffffffffff166108fc60646005601760118b815481101515612ffa57fe5b90600052602060002090600802016004015481548110151561301857fe5b90600052602060002090600a020160020160009054906101000a900473ffffffffffffffffffffffffffffffffffffffff1673ffffffffffffffffffffffffffffffffffffffff16310281151561306b57fe5b049081150290604051600060405180830381858888f19350505050158015613097573d6000803e3d6000fd5b5060016011878154811015156130a957fe5b906000526020600020906008020160060160006101000a81548160ff021916908315150217905550429350620639c08401925060176011878154811015156130ed57fe5b90600052602060002090600802016004015481548110151561310b57fe5b90600052602060002090600a020160020160009054906101000a900473ffffffffffffffffffffffffffffffffffffffff16915060108581548110151561314e57fe5b906000526020600020906005020160010160009054906101000a900473ffffffffffffffffffffffffffffffffffffffff1690506005600081548092919060010191905055506101006040519081016040528060055481526020018681526020016011888154811015156131be57fe5b90600052602060002090600802016004015481526020018273ffffffffffffffffffffffffffffffffffffffff168152602001606460058573ffffffffffffffffffffffffffffffffffffffff16310281151561321757fe5b04815260200185815260200184815260200160001515815250601260055481548110151561324157fe5b906000526020600020906008020160008201518160000155602082015181600101556040820151816002015560608201518160030160006101000a81548173ffffffffffffffffffffffffffffffffffffffff021916908373ffffffffffffffffffffffffffffffffffffffff1602179055506080820151816004015560a0820151816005015560c0820151816006015560e08201518160070160006101000a81548160ff021916908315150217905550905050600160108681548110151561330657fe5b906000526020600020906005020160040160016101000a81548160ff021916908315150217905550505050505050565b60095481565b600a5481565b60065481565b60055481565b600080151561335c8361255a565b151514151561336a57600080fd5b60108281548110151561337957fe5b906000526020600020906005020160020154905060178181548110151561339c57fe5b90600052602060002090600a02016004015434101515156133bc57600080fd5b426010838154811015156133cc57fe5b90600052602060002090600502016003018190555060016010838154811015156133f257fe5b906000526020600020906005020160040160006101000a81548160ff0219169083151502179055505050565b60128181548110151561342d57fe5b90600052602060002090600802016000915090508060000154908060010154908060020154908060030160009054906101000a900473ffffffffffffffffffffffffffffffffffffffff16908060040154908060050154908060060154908060070160009054906101000a900460ff16905088565b6000809054906101000a900473ffffffffffffffffffffffffffffffffffffffff1681565b60136020528060005260406000206000915054906101000a900473ffffffffffffffffffffffffffffffffffffffff1681565b828054600181600116156101000203166002900490600052602060002090601f016020900481019282601f1061353b57805160ff1916838001178555613569565b82800160010185558215613569579182015b8281111561356857825182559160200191906001019061354d565b5b509050613576919061366d565b5090565b8280548282559060005260206000209081019282156135f3579160200282015b828111156135f25782518260006101000a81548173ffffffffffffffffffffffffffffffffffffffff021916908373ffffffffffffffffffffffffffffffffffffffff1602179055509160200191906001019061359a565b5b5090506136009190613692565b5090565b50805460018160011615610100020316600290046000825580601f1061362a5750613649565b601f016020900490600052602060002090810190613648919061366d565b5b50565b508054600082559060005260206000209081019061366a919061366d565b50565b61368f91905b8082111561368b576000816000905550600101613673565b5090565b90565b6136d291905b808211156136ce57600081816101000a81549073ffffffffffffffffffffffffffffffffffffffff021916905550600101613698565b5090565b905600a165627a7a72305820532522026c331eba3cb49f4ed99bc2fa22278b5475b328d7a2e56190d51794ce0029",
  "source": "// SPDX-License-Identifier: MIT\r\npragma solidity ^0.4.25;\r\n\r\n/**\r\n * @title Chama\r\n * @dev Blockchain Chama System\r\n * This simplifies the implementation of \"Women Chamas \".\r\n */\r\n\r\ncontract Chama {\r\n    // Chama Managers will be required to create chamas and will be responsible for disbursing dividends for emergency and loans\r\n    // To be a chama Manager you'll have to a minimum of 3eth\r\n    address public chamaManager1;\r\n    address public chamaManager2;\r\n    address public chamaManager3;\r\n    address public chamaManager4;\r\n    // Since I'm storing members in a mapping I need membersCount to keep track of the number of members\r\n    uint256 public membersCount;\r\n    uint256 public loanCount;\r\n    uint256 public chamaCount;\r\n    uint256 public requestCount;\r\n    uint256 public approversCount;\r\n    uint256 public memberFundCount;\r\n    uint256 public loanRequestCount;\r\n    uint256 public membersToApproveCount = 1;\r\n\r\n    struct Member {\r\n        uint256 memberID;\r\n        address member;\r\n        uint256 chamaID;\r\n        uint256 registrationDate;\r\n        bool isActive;\r\n        bool hasLoaned;\r\n        bool hasEmergency;\r\n        bool hasBeenPaid;\r\n    }\r\n\r\n    // keeps track of the members of a specific chama\r\n    mapping(uint256 => address) public membersToChama;\r\n    // keeps track of the numbers of members of a specific chama\r\n    mapping(address => uint256) chamaMembersCount;\r\n    // membApproved is used to keep track of the members who have approved a loan request so that a member doesn't approve more than once\r\n    mapping(address => bool) membHasAlreadyApproved;\r\n    // memberPaidStatus is meant to keep track the payment status of chama members\r\n    mapping(address => bool) memberPaidStatus;\r\n\r\n    Member[] public members;\r\n\r\n    struct ChamaDetails {\r\n        uint256 chamaID;\r\n        string _name;\r\n        address chamaManager;\r\n        uint256 registrationFee;\r\n        uint256 premium;\r\n        uint256 target;\r\n        uint256 creationDate;\r\n        // disbusrement period will be the amount of time it take before funds are disbursed i.e 1 month or a week\r\n        uint256 disbursementPeriod;\r\n        address[] chamaMembers;\r\n        uint256 endDate;\r\n    }\r\n\r\n    // store details about request for loan or emergencyLoan\r\n    struct Request {\r\n        uint256 requestID;\r\n        string description;\r\n        uint256 amount;\r\n        address recipient;\r\n        uint256 chamaID;\r\n        uint256 memberNo;\r\n        bool complete;\r\n        uint256 approvalCount;\r\n    }\r\n    struct Loan {\r\n        uint256 loanID;\r\n        uint256 memberID;\r\n        uint256 chamaID;\r\n        address loaneeAddress;\r\n        uint256 amount;\r\n        uint256 dayAwarded;\r\n        uint256 dueDate;\r\n        bool hasBeenPaid;\r\n    }\r\n\r\n    Request[] public requests;\r\n    Loan[] public loans;\r\n    // mapping will include chama members who need to approve\r\n    mapping(uint256 => address) public approversToChama1;\r\n    mapping(uint256 => address) public approversToChama2;\r\n    mapping(uint256 => address) public approversToChama3;\r\n    mapping(uint256 => address) public approversToChama4;\r\n    //mapping(address => bool) public approvers;\r\n\r\n    //mapping(uint256 => ChamaDetails) chamas;\r\n    ChamaDetails[] public chamas;\r\n\r\n    event NewLoanRequest(\r\n        uint256 approvCount,\r\n        string descr,\r\n        uint256 amt,\r\n        address loanee,\r\n        uint256 membID,\r\n        bool status\r\n    );\r\n\r\n    event NewChama(\r\n        uint256 chamaCount,\r\n        string name,\r\n        address chamAddress,\r\n        uint256 regFee,\r\n        uint256 premium,\r\n        uint256 target,\r\n        uint256 date,\r\n        uint256 _reemittancePeriod,\r\n        address[] chamMembers,\r\n        uint256 chamsEndDate\r\n    );\r\n\r\n    // The address that deploys this contract will be chamaManager1\r\n    // Constructor\r\n    /** constructor(\r\n        string _nam,\r\n        string _registrationFee,\r\n        string _premium,\r\n        string _target,\r\n        uint256 _reemittancePeriod\r\n    ) public {\r\n        chamaCount++;\r\n        chamaManager1 = msg.sender;\r\n        uint256 time = block.timestamp;\r\n        address[] memory membs;\r\n        // 4896000 is Epoch Unix time equivalence of a year\r\n        chamas[chamaCount] = ChamaDetails(\r\n            chamaCount,\r\n            _nam,\r\n            chamaManager1,\r\n            _registrationFee,\r\n            _premium,\r\n            _target,\r\n            time,\r\n            _reemittancePeriod,\r\n            membs,\r\n            4896000\r\n        );\r\n        //return(chamaCount);\r\n    } */\r\n\r\n    // function to create a Chama\r\n\r\n    function createRandomChama(\r\n        string _name,\r\n        uint256 registrationFee,\r\n        uint256 premium,\r\n        uint256 target,\r\n        uint256 _reemittancePeriod\r\n    ) public payable returns (uint256, address) {\r\n        // For one to be a chama Manager he or she must be willing to pay 3 ether\r\n        require(msg.value >= 3 ether);\r\n        require(\r\n            chamaManager1 == address(0) ||\r\n                chamaManager2 == address(0) ||\r\n                chamaManager3 == address(0) ||\r\n                chamaManager4 == address(0)\r\n        );\r\n        // chamaAdd will be the Chama Address which will be equal to ChamaManager's address\r\n        address chamaAdd;\r\n        uint256 date;\r\n        // chamaManager address will be the\r\n        if (\r\n            chamaManager1 == address(0) ||\r\n            chamaManager2 == address(0) ||\r\n            chamaManager3 == address(0) ||\r\n            chamaManager4 == address(0)\r\n        ) {\r\n            chamaManager1 = msg.sender;\r\n            chamaAdd = chamaManager1;\r\n        } else if (\r\n            chamaManager2 == address(0) ||\r\n            chamaManager3 == address(0) ||\r\n            chamaManager4 == address(0)\r\n        ) {\r\n            // assign to chamaManager2\r\n            chamaManager2 = msg.sender;\r\n            chamaAdd = chamaManager2;\r\n        } else if (chamaManager3 == address(0) || chamaManager4 == address(0)) {\r\n            // assign to chamaManager3\r\n            chamaManager3 = msg.sender;\r\n            chamaAdd = chamaManager3;\r\n        } else if (chamaManager4 == address(0)) {\r\n            // assign to chamaManager4\r\n            chamaManager4 = msg.sender;\r\n            chamaAdd = chamaManager4;\r\n        } else {\r\n            // stop creating a random chama\r\n            revert(\"Stop creating the chama!\");\r\n        }\r\n        chamaCount++;\r\n        date = block.timestamp;\r\n        address[] memory mbrs;\r\n        uint256 endingDate = 4896000;\r\n        chamas[chamaCount] = ChamaDetails(\r\n            chamaCount,\r\n            _name,\r\n            chamaAdd,\r\n            registrationFee,\r\n            premium,\r\n            target,\r\n            date,\r\n            _reemittancePeriod,\r\n            mbrs,\r\n            endingDate\r\n        );\r\n\r\n        emit NewChama(\r\n            chamaCount,\r\n            _name,\r\n            chamaAdd,\r\n            registrationFee,\r\n            premium,\r\n            target,\r\n            date,\r\n            _reemittancePeriod,\r\n            mbrs,\r\n            endingDate\r\n        );\r\n\r\n        return (chamaCount, chamaAdd);\r\n    }\r\n\r\n    // chamaAddress will be the address of the chama's manager\r\n    // in the front end application we'll have a list of available chamas with the addresses of their respective managers\r\n    // function to join Chama\r\n    function joinChama(address chamaAddre, uint256 chamaCt)\r\n        public\r\n        payable\r\n        returns (uint256)\r\n    {\r\n        require(\r\n            chamaAddre == chamaManager1 ||\r\n                chamaAddre == chamaManager2 ||\r\n                chamaAddre == chamaManager3 ||\r\n                chamaAddre == chamaManager4\r\n        );\r\n        require(chamaMembersCount[chamaAddre] <= 12);\r\n        require(msg.value >= chamas[chamaCt].registrationFee);\r\n        uint256 registrationTime = block.timestamp;\r\n        membersCount++;\r\n        // membersCount will serve as memberID\r\n        uint256 id = members.push(\r\n            Member(\r\n                membersCount,\r\n                msg.sender,\r\n                chamaCt,\r\n                registrationTime,\r\n                true,\r\n                false,\r\n                false,\r\n                false\r\n            )\r\n        ) - 1;\r\n        membersToChama[id] = chamaAddre;\r\n        //chamaMembersCount[chamaAddre] = chamaMembersCount[chamaAddre].add(1);\r\n        chamaMembersCount[chamaAddre] = membersCount;\r\n        chamas[chamaCt].chamaMembers.push(msg.sender);\r\n        return (id);\r\n    }\r\n\r\n    /** function listOfChamaDetails(uint256 _chamsID) public view returns(ChamaDetails[]) {\r\n        // expect to return the members addresses made with the loan requests details\r\n        return (chamas[_chamsID]);\r\n    }  */\r\n\r\n    // function to disburse\r\n    // Using useEffect will keep on calling this function to keep track of time and make sure it\r\n    function disburseDividends(uint256 _chamID, address _membReceiving) public {\r\n        require(block.timestamp >= chamas[_chamID].creationDate + 408000);\r\n        require(memberPaidStatus[_membReceiving] == false);\r\n        memberFundCount++;\r\n        members[memberFundCount].member.transfer(\r\n            (chamas[_chamID].chamaManager.balance * 50) / 100\r\n        );\r\n        chamas[_chamID].creationDate = block.timestamp;\r\n        members[memberFundCount].hasBeenPaid = true;\r\n        memberPaidStatus[_membReceiving] = true;\r\n        if (memberFundCount > 12) {\r\n            memberFundCount = 0;\r\n        }\r\n    }\r\n\r\n    // function to check subscription status\r\n    function checkSubscriptionStatus(uint256 _membersCount)\r\n        public\r\n        view\r\n        returns (bool)\r\n    {\r\n        // Epoch Unix time equivalence of 30 days\r\n        // I converted 30 days to Epoch Unix time equivalence i.e 408000\r\n        //require(members[_membersCount].hasPaid == false )\r\n        //require(block.timestamp == members[_membersCount].registrationDate + 408000);\r\n        // Need to add logic to check if he or she has paid\r\n        //require(renewSubscription(_membersCount) == false);\r\n        bool expired;\r\n        if (\r\n            block.timestamp == members[_membersCount].registrationDate + 408000\r\n        ) {\r\n            expired = true;\r\n            return (expired);\r\n        } else {\r\n            expired = false;\r\n            return (expired);\r\n        }\r\n    }\r\n\r\n    // function to renew Subscription\r\n    function renewSubscription(uint256 _membersCount) public payable {\r\n        require(checkSubscriptionStatus(_membersCount) == false);\r\n        uint256 chama = members[_membersCount].chamaID;\r\n        require(msg.value >= chamas[chama].premium);\r\n        members[_membersCount].registrationDate = block.timestamp;\r\n        members[_membersCount].isActive = true;\r\n    }\r\n\r\n    // decisions as to whether to award loans to members will be based on a consensus made by every chama member\r\n    // function to create a Loan request\r\n    function createLoanRequest(\r\n        string _description,\r\n        uint256 _amount,\r\n        uint256 _memberNo,\r\n        uint256 _chmID\r\n    ) public {\r\n        address recipient = msg.sender;\r\n        uint256 approvalCount;\r\n        bool requestStatus = false;\r\n        loanRequestCount++;\r\n        requests.push(\r\n            Request(\r\n                loanRequestCount,\r\n                _description,\r\n                _amount,\r\n                recipient,\r\n                _chmID,\r\n                _memberNo,\r\n                requestStatus,\r\n                approvalCount\r\n            )\r\n        );\r\n        for (uint256 i = 0; i < chamas[_chmID].chamaMembers.length; i++) {\r\n            if (_chmID == 1) {\r\n                approversToChama1[membersToApproveCount] = chamas[_chmID]\r\n                    .chamaMembers[i];\r\n                membersToApproveCount++;\r\n            } else if (_chmID == 2) {\r\n                approversToChama2[membersToApproveCount] = chamas[_chmID]\r\n                    .chamaMembers[i];\r\n                membersToApproveCount++;\r\n            } else if (_chmID == 3) {\r\n                approversToChama3[membersToApproveCount] = chamas[_chmID]\r\n                    .chamaMembers[i];\r\n                membersToApproveCount++;\r\n            } else if (_chmID == 4) {\r\n                approversToChama4[membersToApproveCount] = chamas[_chmID]\r\n                    .chamaMembers[i];\r\n                membersToApproveCount++;\r\n            } else {\r\n                revert(\"Chama with that ID does not exist!\");\r\n            }\r\n        }\r\n        emit NewLoanRequest(\r\n            approvalCount,\r\n            _description,\r\n            _amount,\r\n            recipient,\r\n            _memberNo,\r\n            requestStatus\r\n        );\r\n    }\r\n\r\n    // function returns a list of loan requests\r\n    function listOfLoanRequests() internal view returns (Request[]) {\r\n        // expect to return the several requests made with the loan requests details\r\n        return (requests);\r\n    }\r\n\r\n    // function that Chama members will call to approve loan requests\r\n    function approveLoanRequest(\r\n        uint256 _requestID,\r\n        uint256 _approverID,\r\n        uint256 _chamsId\r\n    ) public {\r\n        //uint256 loaneeNumber = requests[_requestID].memberNo;\r\n        //require(members[loaneeNumber].chamaID)\r\n        if (_chamsId == 1) {\r\n            require(approversToChama1[_approverID] == msg.sender);\r\n        } else if (_chamsId == 2) {\r\n            require(approversToChama2[_approverID] == msg.sender);\r\n        } else if (_chamsId == 3) {\r\n            require(approversToChama3[_approverID] == msg.sender);\r\n        } else if (_chamsId == 4) {\r\n            require(approversToChama4[_approverID] == msg.sender);\r\n        }\r\n        // there may be many loan requests someone may argue\r\n        // but at the moment our rule is we can only administer one loan at a time\r\n        require(!membHasAlreadyApproved[msg.sender]);\r\n        requests[_requestID].approvalCount++;\r\n        membHasAlreadyApproved[msg.sender] = true;\r\n    }\r\n\r\n    // function to award loan based on consensus arrived by every member\r\n    // useEffect hook which is dispatched whenever there is change in state\r\n    // At the moment the contract process a Chama at a time, can't process concurrent requests\r\n    function awardLoanRequest(uint256 _requestID) public {\r\n        // In order to award loan, decision is influenced by chama members\r\n        uint256 memId = requests[_requestID].memberNo;\r\n        require(members[memId].isActive);\r\n        require(requests[_requestID].approvalCount >= 6);\r\n        require(!requests[_requestID].complete);\r\n        //chamas[chamaID].chamaManager.transfer()\r\n        requests[_requestID].recipient.transfer(\r\n            ((chamas[requests[_requestID].chamaID].chamaManager.balance * 5) /\r\n                100)\r\n        );\r\n        requests[_requestID].complete = true;\r\n        uint256 timeAwarded = block.timestamp;\r\n        uint256 loanDueDate = timeAwarded + 408000;\r\n        address manager = chamas[requests[_requestID].chamaID].chamaManager;\r\n        address loaneeAdd = members[memId].member;\r\n        loanCount++;\r\n        loans[loanCount] = Loan(\r\n            loanCount,\r\n            memId,\r\n            requests[_requestID].chamaID,\r\n            loaneeAdd,\r\n            (manager.balance * 5) / 100,\r\n            timeAwarded,\r\n            loanDueDate,\r\n            false\r\n        );\r\n        members[memId].hasLoaned = true;\r\n        // I want to set the membHasAlreadyApproved mapping with address as its key and value as a boolean field to the default mapping value\r\n        //delete membHasAlreadyApproved;\r\n    }\r\n\r\n    function payLoanAwarded(uint256 _loanId) public payable returns (bool) {\r\n        require(!loans[_loanId].hasBeenPaid);\r\n        uint256 dueTime = loans[_loanId].dueDate;\r\n        uint256 blockTime = block.timestamp;\r\n        uint256 loanPayAmt = loans[_loanId].amount;\r\n        uint256 loanAmt;\r\n        uint256 mbID = loans[_loanId].memberID;\r\n        // If you don't pay within the two months time frame your account is inactivated\r\n        if (blockTime <= dueTime) {\r\n            require(msg.value >= loanPayAmt);\r\n            return loans[_loanId].hasBeenPaid = true;\r\n        } else if (blockTime > dueTime) {\r\n            if (blockTime >= dueTime + 408000) {\r\n                loanAmt = (loanPayAmt * 102) / 100;\r\n                require(msg.value >= loanAmt);\r\n                return loans[_loanId].hasBeenPaid = true;\r\n            } else if (blockTime >= dueTime + 816000) {\r\n                loanAmt = (loanPayAmt * 104) / 100;\r\n                require(msg.value >= loanAmt);\r\n                return loans[_loanId].hasBeenPaid = true;\r\n            } else {\r\n                members[mbID].isActive = false;\r\n                return loans[_loanId].hasBeenPaid = false;\r\n            }\r\n        }\r\n    }\r\n\r\n    // Chama ends at the indicated date, once you join the Chama you can't leave until the end date reaches\r\n    function endChama() public {\r\n        // give one day for dividends to be sent to the last person and then they get dividends then the group is deleted\r\n        for (uint256 i = 1; i <= chamaCount; i++) {\r\n            if (block.timestamp >= chamas[i].endDate + 86400) {\r\n                delete chamas[i];\r\n            }\r\n        }\r\n    }\r\n}\r\n",
  "sourcePath": "C:\\Users\\ronle\\OneDrive\\Desktop\\Solidity\\CryptoZombies\\cryptozombies-lesson-code\\sample-folder\\contracts\\Chama.sol",
  "compiler": {
    "name": "solc",
    "version": "0.4.25+commit.59dbf8f1.Emscripten.clang"
  },
  "schemaVersion": "3.4.6",
  "updatedAt": "2022-04-08T14:43:48.398Z",
  "networkType": "ethereum",
  "devdoc": {
    "methods": {},
    "title": "Chama\r"
  },
  "userdoc": {
    "methods": {
      "createRandomChama(string,uint256,uint256,uint256,uint256)": {
        "notice": "constructor(\r string _nam,\r string _registrationFee,\r string _premium,\r string _target,\r uint256 _reemittancePeriod\r ) public {\r chamaCount++;\r chamaManager1 = msg.sender;\r uint256 time = block.timestamp;\r address[] memory membs;\r // 4896000 is Epoch Unix time equivalence of a year\r chamas[chamaCount] = ChamaDetails(\r chamaCount,\r _nam,\r chamaManager1,\r _registrationFee,\r _premium,\r _target,\r time,\r _reemittancePeriod,\r membs,\r 4896000\r );\r //return(chamaCount);\r } "
      },
      "disburseDividends(uint256,address)": {
        "notice": "function listOfChamaDetails(uint256 _chamsID) public view returns(ChamaDetails[]) {\r // expect to return the members addresses made with the loan requests details\r return (chamas[_chamsID]);\r }  "
      }
    }
  }
}