{
  "contractName": "Chama",
  "abi": [
    {
      "anonymous": false,
      "inputs": [
        {
          "indexed": false,
          "internalType": "uint256",
          "name": "chamaCount",
          "type": "uint256"
        },
        {
          "indexed": false,
          "internalType": "string",
          "name": "name",
          "type": "string"
        },
        {
          "indexed": false,
          "internalType": "address",
          "name": "chamAddress",
          "type": "address"
        },
        {
          "indexed": false,
          "internalType": "uint256",
          "name": "regFee",
          "type": "uint256"
        },
        {
          "indexed": false,
          "internalType": "uint256",
          "name": "premium",
          "type": "uint256"
        },
        {
          "indexed": false,
          "internalType": "uint256",
          "name": "target",
          "type": "uint256"
        },
        {
          "indexed": false,
          "internalType": "uint256",
          "name": "date",
          "type": "uint256"
        },
        {
          "indexed": false,
          "internalType": "uint256",
          "name": "_reemittancePeriod",
          "type": "uint256"
        },
        {
          "indexed": false,
          "internalType": "address[]",
          "name": "chamMembers",
          "type": "address[]"
        },
        {
          "indexed": false,
          "internalType": "uint256",
          "name": "chamsEndDate",
          "type": "uint256"
        }
      ],
      "name": "NewChama",
      "type": "event"
    },
    {
      "anonymous": false,
      "inputs": [
        {
          "indexed": false,
          "internalType": "uint256",
          "name": "approvCount",
          "type": "uint256"
        },
        {
          "indexed": false,
          "internalType": "string",
          "name": "descr",
          "type": "string"
        },
        {
          "indexed": false,
          "internalType": "uint256",
          "name": "amt",
          "type": "uint256"
        },
        {
          "indexed": false,
          "internalType": "address",
          "name": "loanee",
          "type": "address"
        },
        {
          "indexed": false,
          "internalType": "uint256",
          "name": "membID",
          "type": "uint256"
        },
        {
          "indexed": false,
          "internalType": "bool",
          "name": "status",
          "type": "bool"
        }
      ],
      "name": "NewLoanRequest",
      "type": "event"
    },
    {
      "constant": true,
      "inputs": [],
      "name": "approversCount",
      "outputs": [
        {
          "internalType": "uint256",
          "name": "",
          "type": "uint256"
        }
      ],
      "payable": false,
      "stateMutability": "view",
      "type": "function"
    },
    {
      "constant": true,
      "inputs": [
        {
          "internalType": "uint256",
          "name": "",
          "type": "uint256"
        }
      ],
      "name": "approversToChama1",
      "outputs": [
        {
          "internalType": "address",
          "name": "",
          "type": "address"
        }
      ],
      "payable": false,
      "stateMutability": "view",
      "type": "function"
    },
    {
      "constant": true,
      "inputs": [
        {
          "internalType": "uint256",
          "name": "",
          "type": "uint256"
        }
      ],
      "name": "approversToChama2",
      "outputs": [
        {
          "internalType": "address",
          "name": "",
          "type": "address"
        }
      ],
      "payable": false,
      "stateMutability": "view",
      "type": "function"
    },
    {
      "constant": true,
      "inputs": [
        {
          "internalType": "uint256",
          "name": "",
          "type": "uint256"
        }
      ],
      "name": "approversToChama3",
      "outputs": [
        {
          "internalType": "address",
          "name": "",
          "type": "address"
        }
      ],
      "payable": false,
      "stateMutability": "view",
      "type": "function"
    },
    {
      "constant": true,
      "inputs": [
        {
          "internalType": "uint256",
          "name": "",
          "type": "uint256"
        }
      ],
      "name": "approversToChama4",
      "outputs": [
        {
          "internalType": "address",
          "name": "",
          "type": "address"
        }
      ],
      "payable": false,
      "stateMutability": "view",
      "type": "function"
    },
    {
      "constant": true,
      "inputs": [],
      "name": "chamaCount",
      "outputs": [
        {
          "internalType": "uint256",
          "name": "",
          "type": "uint256"
        }
      ],
      "payable": false,
      "stateMutability": "view",
      "type": "function"
    },
    {
      "constant": true,
      "inputs": [],
      "name": "chamaManager1",
      "outputs": [
        {
          "internalType": "address",
          "name": "",
          "type": "address"
        }
      ],
      "payable": false,
      "stateMutability": "view",
      "type": "function"
    },
    {
      "constant": true,
      "inputs": [],
      "name": "chamaManager2",
      "outputs": [
        {
          "internalType": "address",
          "name": "",
          "type": "address"
        }
      ],
      "payable": false,
      "stateMutability": "view",
      "type": "function"
    },
    {
      "constant": true,
      "inputs": [],
      "name": "chamaManager3",
      "outputs": [
        {
          "internalType": "address",
          "name": "",
          "type": "address"
        }
      ],
      "payable": false,
      "stateMutability": "view",
      "type": "function"
    },
    {
      "constant": true,
      "inputs": [],
      "name": "chamaManager4",
      "outputs": [
        {
          "internalType": "address",
          "name": "",
          "type": "address"
        }
      ],
      "payable": false,
      "stateMutability": "view",
      "type": "function"
    },
    {
      "constant": true,
      "inputs": [
        {
          "internalType": "uint256",
          "name": "",
          "type": "uint256"
        }
      ],
      "name": "chamas",
      "outputs": [
        {
          "internalType": "uint256",
          "name": "chamaID",
          "type": "uint256"
        },
        {
          "internalType": "string",
          "name": "_name",
          "type": "string"
        },
        {
          "internalType": "address",
          "name": "chamaManager",
          "type": "address"
        },
        {
          "internalType": "uint256",
          "name": "registrationFee",
          "type": "uint256"
        },
        {
          "internalType": "uint256",
          "name": "premium",
          "type": "uint256"
        },
        {
          "internalType": "uint256",
          "name": "target",
          "type": "uint256"
        },
        {
          "internalType": "uint256",
          "name": "creationDate",
          "type": "uint256"
        },
        {
          "internalType": "uint256",
          "name": "disbursementPeriod",
          "type": "uint256"
        },
        {
          "internalType": "uint256",
          "name": "endDate",
          "type": "uint256"
        }
      ],
      "payable": false,
      "stateMutability": "view",
      "type": "function"
    },
    {
      "constant": true,
      "inputs": [],
      "name": "loanCount",
      "outputs": [
        {
          "internalType": "uint256",
          "name": "",
          "type": "uint256"
        }
      ],
      "payable": false,
      "stateMutability": "view",
      "type": "function"
    },
    {
      "constant": true,
      "inputs": [],
      "name": "loanRequestCount",
      "outputs": [
        {
          "internalType": "uint256",
          "name": "",
          "type": "uint256"
        }
      ],
      "payable": false,
      "stateMutability": "view",
      "type": "function"
    },
    {
      "constant": true,
      "inputs": [
        {
          "internalType": "uint256",
          "name": "",
          "type": "uint256"
        }
      ],
      "name": "loans",
      "outputs": [
        {
          "internalType": "uint256",
          "name": "loanID",
          "type": "uint256"
        },
        {
          "internalType": "uint256",
          "name": "memberID",
          "type": "uint256"
        },
        {
          "internalType": "uint256",
          "name": "chamaID",
          "type": "uint256"
        },
        {
          "internalType": "address",
          "name": "loaneeAddress",
          "type": "address"
        },
        {
          "internalType": "uint256",
          "name": "amount",
          "type": "uint256"
        },
        {
          "internalType": "uint256",
          "name": "dayAwarded",
          "type": "uint256"
        },
        {
          "internalType": "uint256",
          "name": "dueDate",
          "type": "uint256"
        },
        {
          "internalType": "bool",
          "name": "hasBeenPaid",
          "type": "bool"
        }
      ],
      "payable": false,
      "stateMutability": "view",
      "type": "function"
    },
    {
      "constant": true,
      "inputs": [],
      "name": "memberFundCount",
      "outputs": [
        {
          "internalType": "uint256",
          "name": "",
          "type": "uint256"
        }
      ],
      "payable": false,
      "stateMutability": "view",
      "type": "function"
    },
    {
      "constant": true,
      "inputs": [
        {
          "internalType": "uint256",
          "name": "",
          "type": "uint256"
        }
      ],
      "name": "members",
      "outputs": [
        {
          "internalType": "uint256",
          "name": "memberID",
          "type": "uint256"
        },
        {
          "internalType": "address payable",
          "name": "member",
          "type": "address"
        },
        {
          "internalType": "uint256",
          "name": "chamaID",
          "type": "uint256"
        },
        {
          "internalType": "uint256",
          "name": "registrationDate",
          "type": "uint256"
        },
        {
          "internalType": "bool",
          "name": "isActive",
          "type": "bool"
        },
        {
          "internalType": "bool",
          "name": "hasLoaned",
          "type": "bool"
        },
        {
          "internalType": "bool",
          "name": "hasEmergency",
          "type": "bool"
        },
        {
          "internalType": "bool",
          "name": "hasBeenPaid",
          "type": "bool"
        }
      ],
      "payable": false,
      "stateMutability": "view",
      "type": "function"
    },
    {
      "constant": true,
      "inputs": [],
      "name": "membersCount",
      "outputs": [
        {
          "internalType": "uint256",
          "name": "",
          "type": "uint256"
        }
      ],
      "payable": false,
      "stateMutability": "view",
      "type": "function"
    },
    {
      "constant": true,
      "inputs": [],
      "name": "membersToApproveCount",
      "outputs": [
        {
          "internalType": "uint256",
          "name": "",
          "type": "uint256"
        }
      ],
      "payable": false,
      "stateMutability": "view",
      "type": "function"
    },
    {
      "constant": true,
      "inputs": [
        {
          "internalType": "uint256",
          "name": "",
          "type": "uint256"
        }
      ],
      "name": "membersToChama",
      "outputs": [
        {
          "internalType": "address",
          "name": "",
          "type": "address"
        }
      ],
      "payable": false,
      "stateMutability": "view",
      "type": "function"
    },
    {
      "constant": true,
      "inputs": [],
      "name": "requestCount",
      "outputs": [
        {
          "internalType": "uint256",
          "name": "",
          "type": "uint256"
        }
      ],
      "payable": false,
      "stateMutability": "view",
      "type": "function"
    },
    {
      "constant": true,
      "inputs": [
        {
          "internalType": "uint256",
          "name": "",
          "type": "uint256"
        }
      ],
      "name": "requests",
      "outputs": [
        {
          "internalType": "uint256",
          "name": "requestID",
          "type": "uint256"
        },
        {
          "internalType": "string",
          "name": "description",
          "type": "string"
        },
        {
          "internalType": "uint256",
          "name": "amount",
          "type": "uint256"
        },
        {
          "internalType": "address payable",
          "name": "recipient",
          "type": "address"
        },
        {
          "internalType": "uint256",
          "name": "chamaID",
          "type": "uint256"
        },
        {
          "internalType": "uint256",
          "name": "memberNo",
          "type": "uint256"
        },
        {
          "internalType": "bool",
          "name": "complete",
          "type": "bool"
        },
        {
          "internalType": "uint256",
          "name": "approvalCount",
          "type": "uint256"
        }
      ],
      "payable": false,
      "stateMutability": "view",
      "type": "function"
    },
    {
      "constant": false,
      "inputs": [
        {
          "internalType": "string",
          "name": "_name",
          "type": "string"
        },
        {
          "internalType": "uint256",
          "name": "registrationFee",
          "type": "uint256"
        },
        {
          "internalType": "uint256",
          "name": "premium",
          "type": "uint256"
        },
        {
          "internalType": "uint256",
          "name": "target",
          "type": "uint256"
        },
        {
          "internalType": "uint256",
          "name": "_reemittancePeriod",
          "type": "uint256"
        }
      ],
      "name": "createRandomChama",
      "outputs": [
        {
          "internalType": "uint256",
          "name": "",
          "type": "uint256"
        },
        {
          "internalType": "address",
          "name": "",
          "type": "address"
        }
      ],
      "payable": true,
      "stateMutability": "payable",
      "type": "function"
    },
    {
      "constant": false,
      "inputs": [
        {
          "internalType": "address",
          "name": "chamaAddre",
          "type": "address"
        },
        {
          "internalType": "uint256",
          "name": "chamaCt",
          "type": "uint256"
        }
      ],
      "name": "joinChama",
      "outputs": [
        {
          "internalType": "uint256",
          "name": "",
          "type": "uint256"
        }
      ],
      "payable": true,
      "stateMutability": "payable",
      "type": "function"
    },
    {
      "constant": false,
      "inputs": [
        {
          "internalType": "uint256",
          "name": "_chamID",
          "type": "uint256"
        },
        {
          "internalType": "address",
          "name": "_membReceiving",
          "type": "address"
        }
      ],
      "name": "disburseDividends",
      "outputs": [],
      "payable": false,
      "stateMutability": "nonpayable",
      "type": "function"
    },
    {
      "constant": true,
      "inputs": [
        {
          "internalType": "uint256",
          "name": "_membersCount",
          "type": "uint256"
        }
      ],
      "name": "checkSubscriptionStatus",
      "outputs": [
        {
          "internalType": "bool",
          "name": "",
          "type": "bool"
        }
      ],
      "payable": false,
      "stateMutability": "view",
      "type": "function"
    },
    {
      "constant": false,
      "inputs": [
        {
          "internalType": "uint256",
          "name": "_membersCount",
          "type": "uint256"
        }
      ],
      "name": "renewSubscription",
      "outputs": [],
      "payable": true,
      "stateMutability": "payable",
      "type": "function"
    },
    {
      "constant": false,
      "inputs": [
        {
          "internalType": "string",
          "name": "_description",
          "type": "string"
        },
        {
          "internalType": "uint256",
          "name": "_amount",
          "type": "uint256"
        },
        {
          "internalType": "uint256",
          "name": "_memberNo",
          "type": "uint256"
        },
        {
          "internalType": "uint256",
          "name": "_chmID",
          "type": "uint256"
        }
      ],
      "name": "createLoanRequest",
      "outputs": [],
      "payable": false,
      "stateMutability": "nonpayable",
      "type": "function"
    },
    {
      "constant": false,
      "inputs": [
        {
          "internalType": "uint256",
          "name": "_requestID",
          "type": "uint256"
        },
        {
          "internalType": "uint256",
          "name": "_approverID",
          "type": "uint256"
        },
        {
          "internalType": "uint256",
          "name": "_chamsId",
          "type": "uint256"
        }
      ],
      "name": "approveLoanRequest",
      "outputs": [],
      "payable": false,
      "stateMutability": "nonpayable",
      "type": "function"
    },
    {
      "constant": false,
      "inputs": [
        {
          "internalType": "uint256",
          "name": "_requestID",
          "type": "uint256"
        }
      ],
      "name": "awardLoanRequest",
      "outputs": [],
      "payable": false,
      "stateMutability": "nonpayable",
      "type": "function"
    },
    {
      "constant": false,
      "inputs": [
        {
          "internalType": "uint256",
          "name": "_loanId",
          "type": "uint256"
        }
      ],
      "name": "payLoanAwarded",
      "outputs": [
        {
          "internalType": "bool",
          "name": "",
          "type": "bool"
        }
      ],
      "payable": true,
      "stateMutability": "payable",
      "type": "function"
    },
    {
      "constant": false,
      "inputs": [],
      "name": "endChama",
      "outputs": [],
      "payable": false,
      "stateMutability": "nonpayable",
      "type": "function"
    }
  ],
  "bytecode": "0x60806040526001600b5534801561001557600080fd5b50613816806100256000396000f3fe6080604052600436106101d85760003560e01c806381d12c5811610102578063afcefe9711610095578063d71bb37b11610064578063d71bb37b14610d16578063e1ec3c6814610d44578063ee69f40714610df4578063f8c6ee1914610e4b576101d8565b8063afcefe9714610c6a578063b786f97814610c95578063c087e28b14610cc0578063ce63094d14610ceb576101d8565b806394b22516116100d157806394b2251614610b4e5780639fccd5e814610b9d578063a4357ba614610bb4578063aa2630c914610c2f576101d8565b806381d12c581461093c57806382fde09314610a515780638eba868914610a7c5780638fe4330714610af7576101d8565b80633b16b5d51161017a5780635badbe4c116101495780635badbe4c146107835780635c1d9039146107ae5780635daf08ca1461082957806376a4598c146108e5576101d8565b80633b16b5d51461061857806340e75ea01461066f57806342a3844a146106c2578063466d67931461073d576101d8565b806319e75ec7116101b657806319e75ec71461037b5780631fd68fb2146104a557806325d1afae1461058b578063297f9af0146105ed576101d8565b806307a6afb1146101dd5780630b5d7085146102385780630f6745bc14610350575b600080fd5b3480156101e957600080fd5b506102366004803603604081101561020057600080fd5b8101908080359060200190929190803573ffffffffffffffffffffffffffffffffffffffff169060200190929190505050610ec6565b005b34801561024457600080fd5b506102716004803603602081101561025b57600080fd5b810190808035906020019092919050505061111a565b604051808a8152602001806020018973ffffffffffffffffffffffffffffffffffffffff1673ffffffffffffffffffffffffffffffffffffffff16815260200188815260200187815260200186815260200185815260200184815260200183815260200182810382528a818151815260200191508051906020019080838360005b8381101561030d5780820151818401526020810190506102f2565b50505050905090810190601f16801561033a5780820380516001836020036101000a031916815260200191505b509a505050505050505050505060405180910390f35b34801561035c57600080fd5b5061036561122d565b6040518082815260200191505060405180910390f35b61045c600480360360a081101561039157600080fd5b81019080803590602001906401000000008111156103ae57600080fd5b8201836020820111156103c057600080fd5b803590602001918460018302840111640100000000831117156103e257600080fd5b91908080601f016020809104026020016040519081016040528093929190818152602001838380828437600081840152601f19601f82011690508083019250505050505050919291929080359060200190929190803590602001909291908035906020019092919080359060200190929190505050611233565b604051808381526020018273ffffffffffffffffffffffffffffffffffffffff1673ffffffffffffffffffffffffffffffffffffffff1681526020019250505060405180910390f35b3480156104b157600080fd5b50610589600480360360808110156104c857600080fd5b81019080803590602001906401000000008111156104e557600080fd5b8201836020820111156104f757600080fd5b8035906020019184600183028401116401000000008311171561051957600080fd5b91908080601f016020809104026020016040519081016040528093929190818152602001838380828437600081840152601f19601f820116905080830192505050505050509192919290803590602001909291908035906020019092919080359060200190929190505050611c0e565b005b6105d7600480360360408110156105a157600080fd5b81019080803573ffffffffffffffffffffffffffffffffffffffff16906020019092919080359060200190929190505050612210565b6040518082815260200191505060405180910390f35b3480156105f957600080fd5b50610602612699565b6040518082815260200191505060405180910390f35b34801561062457600080fd5b5061062d61269f565b604051808273ffffffffffffffffffffffffffffffffffffffff1673ffffffffffffffffffffffffffffffffffffffff16815260200191505060405180910390f35b34801561067b57600080fd5b506106a86004803603602081101561069257600080fd5b81019080803590602001909291905050506126c5565b604051808215151515815260200191505060405180910390f35b3480156106ce57600080fd5b506106fb600480360360208110156106e557600080fd5b810190808035906020019092919050505061270e565b604051808273ffffffffffffffffffffffffffffffffffffffff1673ffffffffffffffffffffffffffffffffffffffff16815260200191505060405180910390f35b6107696004803603602081101561075357600080fd5b8101908080359060200190929190505050612741565b604051808215151515815260200191505060405180910390f35b34801561078f57600080fd5b50610798612978565b6040518082815260200191505060405180910390f35b3480156107ba57600080fd5b506107e7600480360360208110156107d157600080fd5b810190808035906020019092919050505061297e565b604051808273ffffffffffffffffffffffffffffffffffffffff1673ffffffffffffffffffffffffffffffffffffffff16815260200191505060405180910390f35b34801561083557600080fd5b506108626004803603602081101561084c57600080fd5b81019080803590602001909291905050506129b1565b604051808981526020018873ffffffffffffffffffffffffffffffffffffffff1673ffffffffffffffffffffffffffffffffffffffff168152602001878152602001868152602001851515151581526020018415151515815260200183151515158152602001821515151581526020019850505050505050505060405180910390f35b3480156108f157600080fd5b506108fa612a5a565b604051808273ffffffffffffffffffffffffffffffffffffffff1673ffffffffffffffffffffffffffffffffffffffff16815260200191505060405180910390f35b34801561094857600080fd5b506109756004803603602081101561095f57600080fd5b8101908080359060200190929190505050612a80565b60405180898152602001806020018881526020018773ffffffffffffffffffffffffffffffffffffffff1673ffffffffffffffffffffffffffffffffffffffff16815260200186815260200185815260200184151515158152602001838152602001828103825289818151815260200191508051906020019080838360005b83811015610a0f5780820151818401526020810190506109f4565b50505050905090810190601f168015610a3c5780820380516001836020036101000a031916815260200191505b50995050505050505050505060405180910390f35b348015610a5d57600080fd5b50610a66612b9a565b6040518082815260200191505060405180910390f35b348015610a8857600080fd5b50610ab560048036036020811015610a9f57600080fd5b8101908080359060200190929190505050612ba0565b604051808273ffffffffffffffffffffffffffffffffffffffff1673ffffffffffffffffffffffffffffffffffffffff16815260200191505060405180910390f35b348015610b0357600080fd5b50610b0c612bd3565b604051808273ffffffffffffffffffffffffffffffffffffffff1673ffffffffffffffffffffffffffffffffffffffff16815260200191505060405180910390f35b348015610b5a57600080fd5b50610b9b60048036036060811015610b7157600080fd5b81019080803590602001909291908035906020019092919080359060200190929190505050612bf9565b005b348015610ba957600080fd5b50610bb2612ebe565b005b348015610bc057600080fd5b50610bed60048036036020811015610bd757600080fd5b8101908080359060200190929190505050612fa6565b604051808273ffffffffffffffffffffffffffffffffffffffff1673ffffffffffffffffffffffffffffffffffffffff16815260200191505060405180910390f35b348015610c3b57600080fd5b50610c6860048036036020811015610c5257600080fd5b8101908080359060200190929190505050612fd9565b005b348015610c7657600080fd5b50610c7f61342d565b6040518082815260200191505060405180910390f35b348015610ca157600080fd5b50610caa613433565b6040518082815260200191505060405180910390f35b348015610ccc57600080fd5b50610cd5613439565b6040518082815260200191505060405180910390f35b348015610cf757600080fd5b50610d0061343f565b6040518082815260200191505060405180910390f35b610d4260048036036020811015610d2c57600080fd5b8101908080359060200190929190505050613445565b005b348015610d5057600080fd5b50610d7d60048036036020811015610d6757600080fd5b810190808035906020019092919050505061350a565b604051808981526020018881526020018781526020018673ffffffffffffffffffffffffffffffffffffffff1673ffffffffffffffffffffffffffffffffffffffff168152602001858152602001848152602001838152602001821515151581526020019850505050505050505060405180910390f35b348015610e0057600080fd5b50610e0961358c565b604051808273ffffffffffffffffffffffffffffffffffffffff1673ffffffffffffffffffffffffffffffffffffffff16815260200191505060405180910390f35b348015610e5757600080fd5b50610e8460048036036020811015610e6e57600080fd5b81019080803590602001909291905050506135b1565b604051808273ffffffffffffffffffffffffffffffffffffffff1673ffffffffffffffffffffffffffffffffffffffff16815260200191505060405180910390f35b620639c060178381548110610ed757fe5b90600052602060002090600a02016006015401421015610ef657600080fd5b60001515600f60008373ffffffffffffffffffffffffffffffffffffffff1673ffffffffffffffffffffffffffffffffffffffff16815260200190815260200160002060009054906101000a900460ff16151514610f5357600080fd5b600960008154809291906001019190505550601060095481548110610f7457fe5b906000526020600020906005020160010160009054906101000a900473ffffffffffffffffffffffffffffffffffffffff1673ffffffffffffffffffffffffffffffffffffffff166108fc6064603260178681548110610fd057fe5b90600052602060002090600a020160020160009054906101000a900473ffffffffffffffffffffffffffffffffffffffff1673ffffffffffffffffffffffffffffffffffffffff1631028161102157fe5b049081150290604051600060405180830381858888f1935050505015801561104d573d6000803e3d6000fd5b50426017838154811061105c57fe5b90600052602060002090600a020160060181905550600160106009548154811061108257fe5b906000526020600020906005020160040160036101000a81548160ff0219169083151502179055506001600f60008373ffffffffffffffffffffffffffffffffffffffff1673ffffffffffffffffffffffffffffffffffffffff16815260200190815260200160002060006101000a81548160ff021916908315150217905550600c60095411156111165760006009819055505b5050565b6017818154811061112757fe5b90600052602060002090600a0201600091509050806000015490806001018054600181600116156101000203166002900480601f0160208091040260200160405190810160405280929190818152602001828054600181600116156101000203166002900480156111d95780601f106111ae576101008083540402835291602001916111d9565b820191906000526020600020905b8154815290600101906020018083116111bc57829003601f168201915b5050505050908060020160009054906101000a900473ffffffffffffffffffffffffffffffffffffffff16908060030154908060040154908060050154908060060154908060070154908060090154905089565b600b5481565b6000806729a2241af62c000034101561124b57600080fd5b600073ffffffffffffffffffffffffffffffffffffffff166000809054906101000a900473ffffffffffffffffffffffffffffffffffffffff1673ffffffffffffffffffffffffffffffffffffffff1614806112f55750600073ffffffffffffffffffffffffffffffffffffffff16600160009054906101000a900473ffffffffffffffffffffffffffffffffffffffff1673ffffffffffffffffffffffffffffffffffffffff16145b8061134e5750600073ffffffffffffffffffffffffffffffffffffffff16600260009054906101000a900473ffffffffffffffffffffffffffffffffffffffff1673ffffffffffffffffffffffffffffffffffffffff16145b806113a75750600073ffffffffffffffffffffffffffffffffffffffff16600360009054906101000a900473ffffffffffffffffffffffffffffffffffffffff1673ffffffffffffffffffffffffffffffffffffffff16145b6113b057600080fd5b600080600073ffffffffffffffffffffffffffffffffffffffff166000809054906101000a900473ffffffffffffffffffffffffffffffffffffffff1673ffffffffffffffffffffffffffffffffffffffff16148061145d5750600073ffffffffffffffffffffffffffffffffffffffff16600160009054906101000a900473ffffffffffffffffffffffffffffffffffffffff1673ffffffffffffffffffffffffffffffffffffffff16145b806114b65750600073ffffffffffffffffffffffffffffffffffffffff16600260009054906101000a900473ffffffffffffffffffffffffffffffffffffffff1673ffffffffffffffffffffffffffffffffffffffff16145b8061150f5750600073ffffffffffffffffffffffffffffffffffffffff16600360009054906101000a900473ffffffffffffffffffffffffffffffffffffffff1673ffffffffffffffffffffffffffffffffffffffff16145b1561157d57336000806101000a81548173ffffffffffffffffffffffffffffffffffffffff021916908373ffffffffffffffffffffffffffffffffffffffff1602179055506000809054906101000a900473ffffffffffffffffffffffffffffffffffffffff16915061193f565b600073ffffffffffffffffffffffffffffffffffffffff16600160009054906101000a900473ffffffffffffffffffffffffffffffffffffffff1673ffffffffffffffffffffffffffffffffffffffff1614806116285750600073ffffffffffffffffffffffffffffffffffffffff16600260009054906101000a900473ffffffffffffffffffffffffffffffffffffffff1673ffffffffffffffffffffffffffffffffffffffff16145b806116815750600073ffffffffffffffffffffffffffffffffffffffff16600360009054906101000a900473ffffffffffffffffffffffffffffffffffffffff1673ffffffffffffffffffffffffffffffffffffffff16145b156116f15733600160006101000a81548173ffffffffffffffffffffffffffffffffffffffff021916908373ffffffffffffffffffffffffffffffffffffffff160217905550600160009054906101000a900473ffffffffffffffffffffffffffffffffffffffff16915061193e565b600073ffffffffffffffffffffffffffffffffffffffff16600260009054906101000a900473ffffffffffffffffffffffffffffffffffffffff1673ffffffffffffffffffffffffffffffffffffffff16148061179c5750600073ffffffffffffffffffffffffffffffffffffffff16600360009054906101000a900473ffffffffffffffffffffffffffffffffffffffff1673ffffffffffffffffffffffffffffffffffffffff16145b1561180c5733600260006101000a81548173ffffffffffffffffffffffffffffffffffffffff021916908373ffffffffffffffffffffffffffffffffffffffff160217905550600260009054906101000a900473ffffffffffffffffffffffffffffffffffffffff16915061193d565b600073ffffffffffffffffffffffffffffffffffffffff16600360009054906101000a900473ffffffffffffffffffffffffffffffffffffffff1673ffffffffffffffffffffffffffffffffffffffff1614156118ce5733600360006101000a81548173ffffffffffffffffffffffffffffffffffffffff021916908373ffffffffffffffffffffffffffffffffffffffff160217905550600360009054906101000a900473ffffffffffffffffffffffffffffffffffffffff16915061193c565b6040517f08c379a00000000000000000000000000000000000000000000000000000000081526004018080602001828103825260188152602001807f53746f70206372656174696e6720746865206368616d6121000000000000000081525060200191505060405180910390fd5b5b5b5b60066000815480929190600101919050555042905060606000624ab500905060405180610140016040528060065481526020018c81526020018573ffffffffffffffffffffffffffffffffffffffff1681526020018b81526020018a8152602001898152602001848152602001888152602001838152602001828152506017600654815481106119cb57fe5b90600052602060002090600a02016000820151816000015560208201518160010190805190602001906119ff9291906135e4565b5060408201518160020160006101000a81548173ffffffffffffffffffffffffffffffffffffffff021916908373ffffffffffffffffffffffffffffffffffffffff160217905550606082015181600301556080820151816004015560a0820151816005015560c0820151816006015560e08201518160070155610100820151816008019080519060200190611a96929190613664565b5061012082015181600901559050507fe8cbc7de3e7d78cd22d00dc7244b12c466a9c0062f2e068295a9e2f3132379d96006548c868d8d8d898e8a8a604051808b8152602001806020018a73ffffffffffffffffffffffffffffffffffffffff1673ffffffffffffffffffffffffffffffffffffffff1681526020018981526020018881526020018781526020018681526020018581526020018060200184815260200183810383528c818151815260200191508051906020019080838360005b83811015611b72578082015181840152602081019050611b57565b50505050905090810190601f168015611b9f5780820380516001836020036101000a031916815260200191505b50838103825285818151815260200191508051906020019060200280838360005b83811015611bdb578082015181840152602081019050611bc0565b505050509050019c5050505050505050505050505060405180910390a16006548495509550505050509550959350505050565b600033905060008060009050600a600081548092919060010191905055506011604051806101000160405280600a5481526020018981526020018881526020018573ffffffffffffffffffffffffffffffffffffffff16815260200186815260200187815260200183151581526020018481525090806001815401808255809150509060018203906000526020600020906008020160009091929091909150600082015181600001556020820151816001019080519060200190611cd39291906135e4565b506040820151816002015560608201518160030160006101000a81548173ffffffffffffffffffffffffffffffffffffffff021916908373ffffffffffffffffffffffffffffffffffffffff1602179055506080820151816004015560a0820151816005015560c08201518160060160006101000a81548160ff02191690831515021790555060e0820151816007015550505060008090505b60178581548110611d7957fe5b90600052602060002090600a020160080180549050811015612112576001851415611e5c5760178581548110611dab57fe5b90600052602060002090600a02016008018181548110611dc757fe5b9060005260206000200160009054906101000a900473ffffffffffffffffffffffffffffffffffffffff1660136000600b54815260200190815260200160002060006101000a81548173ffffffffffffffffffffffffffffffffffffffff021916908373ffffffffffffffffffffffffffffffffffffffff160217905550600b60008154809291906001019190505550612105565b6002851415611f235760178581548110611e7257fe5b90600052602060002090600a02016008018181548110611e8e57fe5b9060005260206000200160009054906101000a900473ffffffffffffffffffffffffffffffffffffffff1660146000600b54815260200190815260200160002060006101000a81548173ffffffffffffffffffffffffffffffffffffffff021916908373ffffffffffffffffffffffffffffffffffffffff160217905550600b60008154809291906001019190505550612104565b6003851415611fea5760178581548110611f3957fe5b90600052602060002090600a02016008018181548110611f5557fe5b9060005260206000200160009054906101000a900473ffffffffffffffffffffffffffffffffffffffff1660156000600b54815260200190815260200160002060006101000a81548173ffffffffffffffffffffffffffffffffffffffff021916908373ffffffffffffffffffffffffffffffffffffffff160217905550600b60008154809291906001019190505550612103565b60048514156120b1576017858154811061200057fe5b90600052602060002090600a0201600801818154811061201c57fe5b9060005260206000200160009054906101000a900473ffffffffffffffffffffffffffffffffffffffff1660166000600b54815260200190815260200160002060006101000a81548173ffffffffffffffffffffffffffffffffffffffff021916908373ffffffffffffffffffffffffffffffffffffffff160217905550600b60008154809291906001019190505550612102565b6040517f08c379a00000000000000000000000000000000000000000000000000000000081526004018080602001828103825260228152602001806137c06022913960400191505060405180910390fd5b5b5b5b8080600101915050611d6c565b507f4914c87a5b1143f407f6924cc93cfc92abac683355da6918a3a92d5cc97317b282888886898660405180878152602001806020018681526020018573ffffffffffffffffffffffffffffffffffffffff1673ffffffffffffffffffffffffffffffffffffffff16815260200184815260200183151515158152602001828103825287818151815260200191508051906020019080838360005b838110156121c85780820151818401526020810190506121ad565b50505050905090810190601f1680156121f55780820380516001836020036101000a031916815260200191505b5097505050505050505060405180910390a150505050505050565b60008060009054906101000a900473ffffffffffffffffffffffffffffffffffffffff1673ffffffffffffffffffffffffffffffffffffffff168373ffffffffffffffffffffffffffffffffffffffff1614806122ba5750600160009054906101000a900473ffffffffffffffffffffffffffffffffffffffff1673ffffffffffffffffffffffffffffffffffffffff168373ffffffffffffffffffffffffffffffffffffffff16145b806123125750600260009054906101000a900473ffffffffffffffffffffffffffffffffffffffff1673ffffffffffffffffffffffffffffffffffffffff168373ffffffffffffffffffffffffffffffffffffffff16145b8061236a5750600360009054906101000a900473ffffffffffffffffffffffffffffffffffffffff1673ffffffffffffffffffffffffffffffffffffffff168373ffffffffffffffffffffffffffffffffffffffff16145b61237357600080fd5b600c600d60008573ffffffffffffffffffffffffffffffffffffffff1673ffffffffffffffffffffffffffffffffffffffff1681526020019081526020016000205411156123c057600080fd5b601782815481106123cd57fe5b90600052602060002090600a0201600301543410156123eb57600080fd5b6000429050600460008154809291906001019190505550601060405180610100016040528060045481526020013373ffffffffffffffffffffffffffffffffffffffff16815260200185815260200183815260200160011515815260200160001515815260200160001515815260200160001515815250908060018154018082558091505090600182039060005260206000209060050201600090919290919091506000820151816000015560208201518160010160006101000a81548173ffffffffffffffffffffffffffffffffffffffff021916908373ffffffffffffffffffffffffffffffffffffffff160217905550604082015181600201556060820151816003015560808201518160040160006101000a81548160ff02191690831515021790555060a08201518160040160016101000a81548160ff02191690831515021790555060c08201518160040160026101000a81548160ff02191690831515021790555060e08201518160040160036101000a81548160ff02191690831515021790555050505083600c600085815260200190815260200160002060006101000a81548173ffffffffffffffffffffffffffffffffffffffff021916908373ffffffffffffffffffffffffffffffffffffffff160217905550600454600d60008673ffffffffffffffffffffffffffffffffffffffff1673ffffffffffffffffffffffffffffffffffffffff168152602001908152602001600020819055506017838154811061261a57fe5b90600052602060002090600a02016008013390806001815401808255809150509060018203906000526020600020016000909192909190916101000a81548173ffffffffffffffffffffffffffffffffffffffff021916908373ffffffffffffffffffffffffffffffffffffffff160217905550508291505092915050565b60045481565b600260009054906101000a900473ffffffffffffffffffffffffffffffffffffffff1681565b600080620639c0601084815481106126d957fe5b90600052602060002090600502016003015401421415612700576001905080915050612709565b60009050809150505b919050565b600c6020528060005260406000206000915054906101000a900473ffffffffffffffffffffffffffffffffffffffff1681565b60006012828154811061275057fe5b906000526020600020906008020160070160009054906101000a900460ff161561277957600080fd5b60006012838154811061278857fe5b906000526020600020906008020160060154905060004290506000601285815481106127b057fe5b9060005260206000209060080201600401549050600080601287815481106127d457fe5b9060005260206000209060080201600101549050600085851161283557833410156127fe57600080fd5b6012888154811061280b57fe5b906000526020600020906008020160070160009054906101000a900460ff1690506001905061296a565b8585111561296957620639c08601851061289d576064606685028161285657fe5b0492508234101561286657600080fd5b6012888154811061287357fe5b906000526020600020906008020160070160009054906101000a900460ff16905060019050612968565b620c7380860185106128fd57606460688502816128b657fe5b049250823410156128c657600080fd5b601288815481106128d357fe5b906000526020600020906008020160070160009054906101000a900460ff16905060019050612967565b60006010838154811061290c57fe5b906000526020600020906005020160040160006101000a81548160ff0219169083151502179055506012888154811061294157fe5b906000526020600020906008020160070160009054906101000a900460ff169050600190505b5b5b5b809650505050505050919050565b60075481565b60156020528060005260406000206000915054906101000a900473ffffffffffffffffffffffffffffffffffffffff1681565b601081815481106129be57fe5b90600052602060002090600502016000915090508060000154908060010160009054906101000a900473ffffffffffffffffffffffffffffffffffffffff16908060020154908060030154908060040160009054906101000a900460ff16908060040160019054906101000a900460ff16908060040160029054906101000a900460ff16908060040160039054906101000a900460ff16905088565b600160009054906101000a900473ffffffffffffffffffffffffffffffffffffffff1681565b60118181548110612a8d57fe5b9060005260206000209060080201600091509050806000015490806001018054600181600116156101000203166002900480601f016020809104026020016040519081016040528092919081815260200182805460018160011615610100020316600290048015612b3f5780601f10612b1457610100808354040283529160200191612b3f565b820191906000526020600020905b815481529060010190602001808311612b2257829003601f168201915b5050505050908060020154908060030160009054906101000a900473ffffffffffffffffffffffffffffffffffffffff16908060040154908060050154908060060160009054906101000a900460ff16908060070154905088565b60085481565b60146020528060005260406000206000915054906101000a900473ffffffffffffffffffffffffffffffffffffffff1681565b600360009054906101000a900473ffffffffffffffffffffffffffffffffffffffff1681565b6001811415612c72573373ffffffffffffffffffffffffffffffffffffffff166013600084815260200190815260200160002060009054906101000a900473ffffffffffffffffffffffffffffffffffffffff1673ffffffffffffffffffffffffffffffffffffffff1614612c6d57600080fd5b612ddc565b6002811415612ceb573373ffffffffffffffffffffffffffffffffffffffff166014600084815260200190815260200160002060009054906101000a900473ffffffffffffffffffffffffffffffffffffffff1673ffffffffffffffffffffffffffffffffffffffff1614612ce657600080fd5b612ddb565b6003811415612d64573373ffffffffffffffffffffffffffffffffffffffff166015600084815260200190815260200160002060009054906101000a900473ffffffffffffffffffffffffffffffffffffffff1673ffffffffffffffffffffffffffffffffffffffff1614612d5f57600080fd5b612dda565b6004811415612dd9573373ffffffffffffffffffffffffffffffffffffffff166016600084815260200190815260200160002060009054906101000a900473ffffffffffffffffffffffffffffffffffffffff1673ffffffffffffffffffffffffffffffffffffffff1614612dd857600080fd5b5b5b5b5b600e60003373ffffffffffffffffffffffffffffffffffffffff1673ffffffffffffffffffffffffffffffffffffffff16815260200190815260200160002060009054906101000a900460ff1615612e3357600080fd5b60118381548110612e4057fe5b9060005260206000209060080201600701600081548092919060010191905055506001600e60003373ffffffffffffffffffffffffffffffffffffffff1673ffffffffffffffffffffffffffffffffffffffff16815260200190815260200160002060006101000a81548160ff021916908315150217905550505050565b6000600190505b6006548111612fa3576201518060178281548110612edf57fe5b90600052602060002090600a020160090154014210612f965760178181548110612f0557fe5b90600052602060002090600a0201600080820160009055600182016000612f2c91906136ee565b6002820160006101000a81549073ffffffffffffffffffffffffffffffffffffffff021916905560038201600090556004820160009055600582016000905560068201600090556007820160009055600882016000612f8b9190613736565b600982016000905550505b8080600101915050612ec5565b50565b60166020528060005260406000206000915054906101000a900473ffffffffffffffffffffffffffffffffffffffff1681565b600060118281548110612fe857fe5b90600052602060002090600802016005015490506010818154811061300957fe5b906000526020600020906005020160040160009054906101000a900460ff1661303157600080fd5b60066011838154811061304057fe5b906000526020600020906008020160070154101561305d57600080fd5b6011828154811061306a57fe5b906000526020600020906008020160060160009054906101000a900460ff161561309357600080fd5b601182815481106130a057fe5b906000526020600020906008020160030160009054906101000a900473ffffffffffffffffffffffffffffffffffffffff1673ffffffffffffffffffffffffffffffffffffffff166108fc606460056017601187815481106130fe57fe5b9060005260206000209060080201600401548154811061311a57fe5b90600052602060002090600a020160020160009054906101000a900473ffffffffffffffffffffffffffffffffffffffff1673ffffffffffffffffffffffffffffffffffffffff1631028161316b57fe5b049081150290604051600060405180830381858888f19350505050158015613197573d6000803e3d6000fd5b506001601183815481106131a757fe5b906000526020600020906008020160060160006101000a81548160ff02191690831515021790555060004290506000620639c08201905060006017601186815481106131ef57fe5b9060005260206000209060080201600401548154811061320b57fe5b90600052602060002090600a020160020160009054906101000a900473ffffffffffffffffffffffffffffffffffffffff16905060006010858154811061324e57fe5b906000526020600020906005020160010160009054906101000a900473ffffffffffffffffffffffffffffffffffffffff1690506005600081548092919060010191905055506040518061010001604052806005548152602001868152602001601188815481106132bb57fe5b90600052602060002090600802016004015481526020018273ffffffffffffffffffffffffffffffffffffffff168152602001606460058573ffffffffffffffffffffffffffffffffffffffff1631028161331257fe5b0481526020018581526020018481526020016000151581525060126005548154811061333a57fe5b906000526020600020906008020160008201518160000155602082015181600101556040820151816002015560608201518160030160006101000a81548173ffffffffffffffffffffffffffffffffffffffff021916908373ffffffffffffffffffffffffffffffffffffffff1602179055506080820151816004015560a0820151816005015560c0820151816006015560e08201518160070160006101000a81548160ff0219169083151502179055509050506001601086815481106133fd57fe5b906000526020600020906005020160040160016101000a81548160ff021916908315150217905550505050505050565b60095481565b600a5481565b60065481565b60055481565b60001515613452826126c5565b15151461345e57600080fd5b60006010828154811061346d57fe5b90600052602060002090600502016002015490506017818154811061348e57fe5b90600052602060002090600a0201600401543410156134ac57600080fd5b42601083815481106134ba57fe5b9060005260206000209060050201600301819055506001601083815481106134de57fe5b906000526020600020906005020160040160006101000a81548160ff0219169083151502179055505050565b6012818154811061351757fe5b90600052602060002090600802016000915090508060000154908060010154908060020154908060030160009054906101000a900473ffffffffffffffffffffffffffffffffffffffff16908060040154908060050154908060060154908060070160009054906101000a900460ff16905088565b6000809054906101000a900473ffffffffffffffffffffffffffffffffffffffff1681565b60136020528060005260406000206000915054906101000a900473ffffffffffffffffffffffffffffffffffffffff1681565b828054600181600116156101000203166002900490600052602060002090601f016020900481019282601f1061362557805160ff1916838001178555613653565b82800160010185558215613653579182015b82811115613652578251825591602001919060010190613637565b5b5090506136609190613757565b5090565b8280548282559060005260206000209081019282156136dd579160200282015b828111156136dc5782518260006101000a81548173ffffffffffffffffffffffffffffffffffffffff021916908373ffffffffffffffffffffffffffffffffffffffff16021790555091602001919060010190613684565b5b5090506136ea919061377c565b5090565b50805460018160011615610100020316600290046000825580601f106137145750613733565b601f0160209004906000526020600020908101906137329190613757565b5b50565b50805460008255906000526020600020908101906137549190613757565b50565b61377991905b8082111561377557600081600090555060010161375d565b5090565b90565b6137bc91905b808211156137b857600081816101000a81549073ffffffffffffffffffffffffffffffffffffffff021916905550600101613782565b5090565b9056fe4368616d612077697468207468617420494420646f6573206e6f7420657869737421a265627a7a7231582074b443d5b853f23046c788d7b5e7a6adf804c7808574b9f4013e3f1a005d98c464736f6c63430005100032",
  "source": "// SPDX-License-Identifier: MIT\r\npragma solidity ^0.5.16;\r\n\r\n/**\r\n * @title Chama\r\n * @dev Blockchain Chama System\r\n * This simplifies the implementation of \"Women Chamas \".\r\n */\r\n\r\ncontract Chama {\r\n    // Chama Managers will be required to create chamas and will be responsible for disbursing dividends for emergency and loans\r\n    // To be a chama Manager you'll have to a minimum of 3eth\r\n    address public chamaManager1;\r\n    address public chamaManager2;\r\n    address public chamaManager3;\r\n    address public chamaManager4;\r\n    // Since I'm storing members in a mapping I need membersCount to keep track of the number of members\r\n    uint256 public membersCount;\r\n    uint256 public loanCount;\r\n    uint256 public chamaCount;\r\n    uint256 public requestCount;\r\n    uint256 public approversCount;\r\n    uint256 public memberFundCount;\r\n    uint256 public loanRequestCount;\r\n    uint256 public membersToApproveCount = 1;\r\n\r\n    struct Member {\r\n        uint256 memberID;\r\n        address payable member;\r\n        uint256 chamaID;\r\n        uint256 registrationDate;\r\n        bool isActive;\r\n        bool hasLoaned;\r\n        bool hasEmergency;\r\n        bool hasBeenPaid;\r\n    }\r\n\r\n    // keeps track of the members of a specific chama\r\n    mapping(uint256 => address) public membersToChama;\r\n    // keeps track of the numbers of members of a specific chama\r\n    mapping(address => uint256) chamaMembersCount;\r\n    // membApproved is used to keep track of the members who have approved a loan request so that a member doesn't approve more than once\r\n    mapping(address => bool) membHasAlreadyApproved;\r\n    // memberPaidStatus is meant to keep track the payment status of chama members\r\n    mapping(address => bool) memberPaidStatus;\r\n\r\n    Member[] public members;\r\n\r\n    struct ChamaDetails {\r\n        uint256 chamaID;\r\n        string _name;\r\n        address chamaManager;\r\n        uint256 registrationFee;\r\n        uint256 premium;\r\n        uint256 target;\r\n        uint256 creationDate;\r\n        // disbusrement period will be the amount of time it take before funds are disbursed i.e 1 month or a week\r\n        uint256 disbursementPeriod;\r\n        address[] chamaMembers;\r\n        uint256 endDate;\r\n    }\r\n\r\n    // store details about request for loan or emergencyLoan\r\n    struct Request {\r\n        uint256 requestID;\r\n        string description;\r\n        uint256 amount;\r\n        address payable recipient;\r\n        uint256 chamaID;\r\n        uint256 memberNo;\r\n        bool complete;\r\n        uint256 approvalCount;\r\n    }\r\n    struct Loan {\r\n        uint256 loanID;\r\n        uint256 memberID;\r\n        uint256 chamaID;\r\n        address loaneeAddress;\r\n        uint256 amount;\r\n        uint256 dayAwarded;\r\n        uint256 dueDate;\r\n        bool hasBeenPaid;\r\n    }\r\n\r\n    Request[] public requests;\r\n    Loan[] public loans;\r\n    // mapping will include chama members who need to approve\r\n    mapping(uint256 => address) public approversToChama1;\r\n    mapping(uint256 => address) public approversToChama2;\r\n    mapping(uint256 => address) public approversToChama3;\r\n    mapping(uint256 => address) public approversToChama4;\r\n    //mapping(address => bool) public approvers;\r\n\r\n    //mapping(uint256 => ChamaDetails) chamas;\r\n    ChamaDetails[] public chamas;\r\n\r\n    event NewLoanRequest(\r\n        uint256 approvCount,\r\n        string descr,\r\n        uint256 amt,\r\n        address loanee,\r\n        uint256 membID,\r\n        bool status\r\n    );\r\n\r\n    event NewChama(\r\n        uint256 chamaCount,\r\n        string name,\r\n        address chamAddress,\r\n        uint256 regFee,\r\n        uint256 premium,\r\n        uint256 target,\r\n        uint256 date,\r\n        uint256 _reemittancePeriod,\r\n        address[] chamMembers,\r\n        uint256 chamsEndDate\r\n    );\r\n\r\n    // The address that deploys this contract will be chamaManager1\r\n    // Constructor\r\n    /** constructor(\r\n        string _nam,\r\n        string _registrationFee,\r\n        string _premium,\r\n        string _target,\r\n        uint256 _reemittancePeriod\r\n    ) public {\r\n        chamaCount++;\r\n        chamaManager1 = msg.sender;\r\n        uint256 time = block.timestamp;\r\n        address[] memory membs;\r\n        // 4896000 is Epoch Unix time equivalence of a year\r\n        chamas[chamaCount] = ChamaDetails(\r\n            chamaCount,\r\n            _nam,\r\n            chamaManager1,\r\n            _registrationFee,\r\n            _premium,\r\n            _target,\r\n            time,\r\n            _reemittancePeriod,\r\n            membs,\r\n            4896000\r\n        );\r\n        //return(chamaCount);\r\n    } */\r\n\r\n    // function to create a Chama\r\n\r\n    function createRandomChama(\r\n        string memory _name,\r\n        uint256 registrationFee,\r\n        uint256 premium,\r\n        uint256 target,\r\n        uint256 _reemittancePeriod\r\n    ) public payable returns (uint256, address) {\r\n        // For one to be a chama Manager he or she must be willing to pay 3 ether\r\n        require(msg.value >= 3 ether);\r\n        require(\r\n            chamaManager1 == address(0) ||\r\n                chamaManager2 == address(0) ||\r\n                chamaManager3 == address(0) ||\r\n                chamaManager4 == address(0)\r\n        );\r\n        // chamaAdd will be the Chama Address which will be equal to ChamaManager's address\r\n        address chamaAdd;\r\n        uint256 date;\r\n        // chamaManager address will be the\r\n        if (\r\n            chamaManager1 == address(0) ||\r\n            chamaManager2 == address(0) ||\r\n            chamaManager3 == address(0) ||\r\n            chamaManager4 == address(0)\r\n        ) {\r\n            chamaManager1 = msg.sender;\r\n            chamaAdd = chamaManager1;\r\n        } else if (\r\n            chamaManager2 == address(0) ||\r\n            chamaManager3 == address(0) ||\r\n            chamaManager4 == address(0)\r\n        ) {\r\n            // assign to chamaManager2\r\n            chamaManager2 = msg.sender;\r\n            chamaAdd = chamaManager2;\r\n        } else if (chamaManager3 == address(0) || chamaManager4 == address(0)) {\r\n            // assign to chamaManager3\r\n            chamaManager3 = msg.sender;\r\n            chamaAdd = chamaManager3;\r\n        } else if (chamaManager4 == address(0)) {\r\n            // assign to chamaManager4\r\n            chamaManager4 = msg.sender;\r\n            chamaAdd = chamaManager4;\r\n        } else {\r\n            // stop creating a random chama\r\n            revert(\"Stop creating the chama!\");\r\n        }\r\n        chamaCount++;\r\n        date = block.timestamp;\r\n        address[] memory mbrs;\r\n        uint256 endingDate = 4896000;\r\n        chamas[chamaCount] = ChamaDetails(\r\n            chamaCount,\r\n            _name,\r\n            chamaAdd,\r\n            registrationFee,\r\n            premium,\r\n            target,\r\n            date,\r\n            _reemittancePeriod,\r\n            mbrs,\r\n            endingDate\r\n        );\r\n\r\n        emit NewChama(\r\n            chamaCount,\r\n            _name,\r\n            chamaAdd,\r\n            registrationFee,\r\n            premium,\r\n            target,\r\n            date,\r\n            _reemittancePeriod,\r\n            mbrs,\r\n            endingDate\r\n        );\r\n\r\n        return (chamaCount, chamaAdd);\r\n    }\r\n\r\n    // chamaAddress will be the address of the chama's manager\r\n    // in the front end application we'll have a list of available chamas with the addresses of their respective managers\r\n    // function to join Chama\r\n    function joinChama(address chamaAddre, uint256 chamaCt)\r\n        public\r\n        payable\r\n        returns (uint256)\r\n    {\r\n        require(\r\n            chamaAddre == chamaManager1 ||\r\n                chamaAddre == chamaManager2 ||\r\n                chamaAddre == chamaManager3 ||\r\n                chamaAddre == chamaManager4\r\n        );\r\n        require(chamaMembersCount[chamaAddre] <= 12);\r\n        require(msg.value >= chamas[chamaCt].registrationFee);\r\n        uint256 registrationTime = block.timestamp;\r\n        membersCount++;\r\n        // membersCount will serve as memberID\r\n        members.push(\r\n            Member(\r\n                membersCount,\r\n                msg.sender,\r\n                chamaCt,\r\n                registrationTime,\r\n                true,\r\n                false,\r\n                false,\r\n                false\r\n            )\r\n        );\r\n        membersToChama[chamaCt] = chamaAddre;\r\n        //chamaMembersCount[chamaAddre] = chamaMembersCount[chamaAddre].add(1);\r\n        chamaMembersCount[chamaAddre] = membersCount;\r\n        chamas[chamaCt].chamaMembers.push(msg.sender);\r\n        return (chamaCt);\r\n    }\r\n\r\n    /** function listOfChamaDetails(uint256 _chamsID) public view returns(ChamaDetails[]) {\r\n        // expect to return the members addresses made with the loan requests details\r\n        return (chamas[_chamsID]);\r\n    }  */\r\n\r\n    // function to disburse\r\n    // Using useEffect will keep on calling this function to keep track of time and make sure it\r\n    function disburseDividends(uint256 _chamID, address _membReceiving) public {\r\n        require(block.timestamp >= chamas[_chamID].creationDate + 408000);\r\n        require(memberPaidStatus[_membReceiving] == false);\r\n        memberFundCount++;\r\n        members[memberFundCount].member.transfer(\r\n            (chamas[_chamID].chamaManager.balance * 50) / 100\r\n        );\r\n        chamas[_chamID].creationDate = block.timestamp;\r\n        members[memberFundCount].hasBeenPaid = true;\r\n        memberPaidStatus[_membReceiving] = true;\r\n        if (memberFundCount > 12) {\r\n            memberFundCount = 0;\r\n        }\r\n        // send and transfer are only available for objects of type \"address payable\", not \"address\"\r\n    }\r\n\r\n    // function to check subscription status\r\n    function checkSubscriptionStatus(uint256 _membersCount)\r\n        public\r\n        view\r\n        returns (bool)\r\n    {\r\n        // Epoch Unix time equivalence of 30 days\r\n        // I converted 30 days to Epoch Unix time equivalence i.e 408000\r\n        //require(members[_membersCount].hasPaid == false )\r\n        //require(block.timestamp == members[_membersCount].registrationDate + 408000);\r\n        // Need to add logic to check if he or she has paid\r\n        //require(renewSubscription(_membersCount) == false);\r\n        bool expired;\r\n        if (\r\n            block.timestamp == members[_membersCount].registrationDate + 408000\r\n        ) {\r\n            expired = true;\r\n            return (expired);\r\n        } else {\r\n            expired = false;\r\n            return (expired);\r\n        }\r\n    }\r\n\r\n    // function to renew Subscription\r\n    function renewSubscription(uint256 _membersCount) public payable {\r\n        require(checkSubscriptionStatus(_membersCount) == false);\r\n        uint256 chama = members[_membersCount].chamaID;\r\n        require(msg.value >= chamas[chama].premium);\r\n        members[_membersCount].registrationDate = block.timestamp;\r\n        members[_membersCount].isActive = true;\r\n    }\r\n\r\n    // decisions as to whether to award loans to members will be based on a consensus made by every chama member\r\n    // function to create a Loan request\r\n    function createLoanRequest(\r\n        string memory _description,\r\n        uint256 _amount,\r\n        uint256 _memberNo,\r\n        uint256 _chmID\r\n    ) public {\r\n        address payable recipient = msg.sender;\r\n        uint256 approvalCount;\r\n        bool requestStatus = false;\r\n        loanRequestCount++;\r\n        requests.push(\r\n            Request(\r\n                loanRequestCount,\r\n                _description,\r\n                _amount,\r\n                recipient,\r\n                _chmID,\r\n                _memberNo,\r\n                requestStatus,\r\n                approvalCount\r\n            )\r\n        );\r\n        for (uint256 i = 0; i < chamas[_chmID].chamaMembers.length; i++) {\r\n            if (_chmID == 1) {\r\n                approversToChama1[membersToApproveCount] = chamas[_chmID]\r\n                    .chamaMembers[i];\r\n                membersToApproveCount++;\r\n            } else if (_chmID == 2) {\r\n                approversToChama2[membersToApproveCount] = chamas[_chmID]\r\n                    .chamaMembers[i];\r\n                membersToApproveCount++;\r\n            } else if (_chmID == 3) {\r\n                approversToChama3[membersToApproveCount] = chamas[_chmID]\r\n                    .chamaMembers[i];\r\n                membersToApproveCount++;\r\n            } else if (_chmID == 4) {\r\n                approversToChama4[membersToApproveCount] = chamas[_chmID]\r\n                    .chamaMembers[i];\r\n                membersToApproveCount++;\r\n            } else {\r\n                revert(\"Chama with that ID does not exist!\");\r\n            }\r\n        }\r\n        emit NewLoanRequest(\r\n            approvalCount,\r\n            _description,\r\n            _amount,\r\n            recipient,\r\n            _memberNo,\r\n            requestStatus\r\n        );\r\n    }\r\n\r\n    // function returns a list of loan requests\r\n    function listOfLoanRequests() internal view returns (Request[] memory) {\r\n        // expect to return the several requests made with the loan requests details\r\n        return (requests);\r\n    }\r\n\r\n    // function that Chama members will call to approve loan requests\r\n    function approveLoanRequest(\r\n        uint256 _requestID,\r\n        uint256 _approverID,\r\n        uint256 _chamsId\r\n    ) public {\r\n        //uint256 loaneeNumber = requests[_requestID].memberNo;\r\n        //require(members[loaneeNumber].chamaID)\r\n        if (_chamsId == 1) {\r\n            require(approversToChama1[_approverID] == msg.sender);\r\n        } else if (_chamsId == 2) {\r\n            require(approversToChama2[_approverID] == msg.sender);\r\n        } else if (_chamsId == 3) {\r\n            require(approversToChama3[_approverID] == msg.sender);\r\n        } else if (_chamsId == 4) {\r\n            require(approversToChama4[_approverID] == msg.sender);\r\n        }\r\n        // there may be many loan requests someone may argue\r\n        // but at the moment our rule is we can only administer one loan at a time\r\n        require(!membHasAlreadyApproved[msg.sender]);\r\n        requests[_requestID].approvalCount++;\r\n        membHasAlreadyApproved[msg.sender] = true;\r\n    }\r\n\r\n    // function to award loan based on consensus arrived by every member\r\n    // useEffect hook which is dispatched whenever there is change in state\r\n    // At the moment the contract process a Chama at a time, can't process concurrent requests\r\n    function awardLoanRequest(uint256 _requestID) public {\r\n        // In order to award loan, decision is influenced by chama members\r\n        uint256 memId = requests[_requestID].memberNo;\r\n        require(members[memId].isActive);\r\n        require(requests[_requestID].approvalCount >= 6);\r\n        require(!requests[_requestID].complete);\r\n        //chamas[chamaID].chamaManager.transfer()\r\n        requests[_requestID].recipient.transfer(\r\n            ((chamas[requests[_requestID].chamaID].chamaManager.balance * 5) /\r\n                100)\r\n        );\r\n        requests[_requestID].complete = true;\r\n        uint256 timeAwarded = block.timestamp;\r\n        uint256 loanDueDate = timeAwarded + 408000;\r\n        address manager = chamas[requests[_requestID].chamaID].chamaManager;\r\n        address loaneeAdd = members[memId].member;\r\n        loanCount++;\r\n        loans[loanCount] = Loan(\r\n            loanCount,\r\n            memId,\r\n            requests[_requestID].chamaID,\r\n            loaneeAdd,\r\n            (manager.balance * 5) / 100,\r\n            timeAwarded,\r\n            loanDueDate,\r\n            false\r\n        );\r\n        members[memId].hasLoaned = true;\r\n        // I want to set the membHasAlreadyApproved mapping with address as its key and value as a boolean field to the default mapping value\r\n        //delete membHasAlreadyApproved;\r\n    }\r\n    // Unnamed return variable can remain unassigned. Add an explicit return with value to all non-reverting code paths or name the variable\r\n\r\n    function payLoanAwarded(uint256 _loanId) public payable returns(bool) {\r\n        require(!loans[_loanId].hasBeenPaid);\r\n        uint256 dueTime = loans[_loanId].dueDate;\r\n        uint256 blockTime = block.timestamp;\r\n        uint256 loanPayAmt = loans[_loanId].amount;\r\n        uint256 loanAmt;\r\n        uint256 mbID = loans[_loanId].memberID;\r\n        bool paid;\r\n        // If you don't pay within the two months time frame your account is inactivated\r\n        if (blockTime <= dueTime) {\r\n            require(msg.value >= loanPayAmt);\r\n            paid = loans[_loanId].hasBeenPaid;\r\n            paid = true;\r\n        } else if (blockTime > dueTime) {\r\n            if (blockTime >= dueTime + 408000) {\r\n                loanAmt = (loanPayAmt * 102) / 100;\r\n                require(msg.value >= loanAmt);\r\n                paid = loans[_loanId].hasBeenPaid;\r\n                paid = true;\r\n            } else if (blockTime >= dueTime + 816000) {\r\n                loanAmt = (loanPayAmt * 104) / 100;\r\n                require(msg.value >= loanAmt);\r\n                paid = loans[_loanId].hasBeenPaid;\r\n                paid = true;\r\n            } else {\r\n                members[mbID].isActive = false;\r\n                paid = loans[_loanId].hasBeenPaid;\r\n                paid = true;\r\n            }\r\n        }\r\n        return paid;\r\n    }\r\n    \r\n\r\n    // Chama ends at the indicated date, once you join the Chama you can't leave until the end date reaches\r\n    function endChama() public {\r\n        // give one day for dividends to be sent to the last person and then they get dividends then the group is deleted\r\n        for (uint256 i = 1; i <= chamaCount; i++) {\r\n            if (block.timestamp >= chamas[i].endDate + 86400) {\r\n                delete chamas[i];\r\n            }\r\n        }\r\n    }\r\n}\r\n",
  "sourcePath": "C:\\Users\\ronle\\OneDrive\\Desktop\\Solidity\\CryptoZombies\\cryptozombies-lesson-code\\sample-folder\\contracts\\Chama.sol",
  "compiler": {
    "name": "solc",
    "version": "0.5.16+commit.9c3226ce.Emscripten.clang"
  },
  "schemaVersion": "3.4.6",
  "updatedAt": "2022-04-08T20:20:03.799Z",
  "networkType": "ethereum",
  "devdoc": {
    "details": "Blockchain Chama System This simplifies the implementation of \"Women Chamas \".",
    "methods": {},
    "title": "Chama"
  },
  "userdoc": {
    "methods": {
      "createRandomChama(string,uint256,uint256,uint256,uint256)": {
        "notice": "constructor( string _nam, string _registrationFee, string _premium, string _target, uint256 _reemittancePeriod ) public { chamaCount++; chamaManager1 = msg.sender; uint256 time = block.timestamp; address[] memory membs; // 4896000 is Epoch Unix time equivalence of a year chamas[chamaCount] = ChamaDetails( chamaCount, _nam, chamaManager1, _registrationFee, _premium, _target, time, _reemittancePeriod, membs, 4896000 ); //return(chamaCount); } "
      },
      "disburseDividends(uint256,address)": {
        "notice": "function listOfChamaDetails(uint256 _chamsID) public view returns(ChamaDetails[]) { // expect to return the members addresses made with the loan requests details return (chamas[_chamsID]); }  "
      }
    }
  }
}